{
  "contractName": "ERC1400",
  "abi": [
    {
      "inputs": [
        {
          "internalType": "address",
          "name": "_adminAddress",
          "type": "address"
        }
      ],
      "stateMutability": "nonpayable",
      "type": "constructor"
    },
    {
      "inputs": [
        {
          "internalType": "address",
          "name": "owner",
          "type": "address"
        }
      ],
      "name": "OwnableInvalidOwner",
      "type": "error"
    },
    {
      "inputs": [
        {
          "internalType": "address",
          "name": "account",
          "type": "address"
        }
      ],
      "name": "OwnableUnauthorizedAccount",
      "type": "error"
    },
    {
      "anonymous": false,
      "inputs": [
        {
          "indexed": true,
          "internalType": "bytes32",
          "name": "_name",
          "type": "bytes32"
        },
        {
          "indexed": false,
          "internalType": "string",
          "name": "_uri",
          "type": "string"
        },
        {
          "indexed": false,
          "internalType": "bytes32",
          "name": "_documentHash",
          "type": "bytes32"
        }
      ],
      "name": "DocumentRemoved",
      "type": "event"
    },
    {
      "anonymous": false,
      "inputs": [
        {
          "indexed": true,
          "internalType": "bytes32",
          "name": "_name",
          "type": "bytes32"
        },
        {
          "indexed": false,
          "internalType": "string",
          "name": "_uri",
          "type": "string"
        },
        {
          "indexed": false,
          "internalType": "bytes32",
          "name": "_documentHash",
          "type": "bytes32"
        }
      ],
      "name": "DocumentUpdated",
      "type": "event"
    },
    {
      "anonymous": false,
      "inputs": [
        {
          "indexed": true,
          "internalType": "address",
          "name": "user",
          "type": "address"
        },
        {
          "indexed": false,
          "internalType": "string",
          "name": "fileName",
          "type": "string"
        },
        {
          "indexed": false,
          "internalType": "string",
          "name": "ipfsHash",
          "type": "string"
        }
      ],
      "name": "FileUploaded",
      "type": "event"
    },
    {
      "anonymous": false,
      "inputs": [
        {
          "indexed": true,
          "internalType": "address",
          "name": "_operator",
          "type": "address"
        },
        {
          "indexed": true,
          "internalType": "address",
          "name": "_to",
          "type": "address"
        },
        {
          "indexed": false,
          "internalType": "string",
          "name": "symbol",
          "type": "string"
        },
        {
          "indexed": false,
          "internalType": "uint256",
          "name": "_value",
          "type": "uint256"
        }
      ],
      "name": "Issued",
      "type": "event"
    },
    {
      "anonymous": false,
      "inputs": [
        {
          "indexed": true,
          "internalType": "address",
          "name": "previousOwner",
          "type": "address"
        },
        {
          "indexed": true,
          "internalType": "address",
          "name": "newOwner",
          "type": "address"
        }
      ],
      "name": "OwnershipTransferred",
      "type": "event"
    },
    {
      "anonymous": false,
      "inputs": [
        {
          "indexed": true,
          "internalType": "address",
          "name": "_operator",
          "type": "address"
        },
        {
          "indexed": true,
          "internalType": "address",
          "name": "_from",
          "type": "address"
        },
        {
          "indexed": false,
          "internalType": "string",
          "name": "symbol",
          "type": "string"
        },
        {
          "indexed": false,
          "internalType": "uint256",
          "name": "_value",
          "type": "uint256"
        }
      ],
      "name": "Redeemed",
      "type": "event"
    },
    {
      "anonymous": false,
      "inputs": [
        {
          "indexed": true,
          "internalType": "address",
          "name": "from",
          "type": "address"
        },
        {
          "indexed": true,
          "internalType": "address",
          "name": "to",
          "type": "address"
        },
        {
          "indexed": false,
          "internalType": "string",
          "name": "symbol",
          "type": "string"
        },
        {
          "indexed": false,
          "internalType": "uint256",
          "name": "value",
          "type": "uint256"
        }
      ],
      "name": "TransferWithData",
      "type": "event"
    },
    {
      "inputs": [
        {
          "internalType": "address",
          "name": "_addr",
          "type": "address"
        }
      ],
      "name": "DocumentVerified",
      "outputs": [
        {
          "internalType": "bool",
          "name": "",
          "type": "bool"
        }
      ],
      "stateMutability": "view",
      "type": "function"
    },
    {
      "inputs": [
        {
          "internalType": "address",
          "name": "_addr",
          "type": "address"
        }
      ],
      "name": "IndianResident",
      "outputs": [
        {
          "internalType": "bool",
          "name": "",
          "type": "bool"
        }
      ],
      "stateMutability": "view",
      "type": "function"
    },
    {
      "inputs": [
        {
          "internalType": "address",
          "name": "_addr",
          "type": "address"
        }
      ],
      "name": "KYCVerified",
      "outputs": [
        {
          "internalType": "bool",
          "name": "",
          "type": "bool"
        }
      ],
      "stateMutability": "view",
      "type": "function"
    },
    {
      "inputs": [
        {
          "internalType": "address",
          "name": "",
          "type": "address"
        }
      ],
      "name": "aadharNumber",
      "outputs": [
        {
          "internalType": "string",
          "name": "",
          "type": "string"
        }
      ],
      "stateMutability": "view",
      "type": "function"
    },
    {
      "inputs": [
        {
          "internalType": "address",
          "name": "_user",
          "type": "address"
        },
        {
          "internalType": "string",
          "name": "_aadharNumber",
          "type": "string"
        }
      ],
      "name": "completeKYC",
      "outputs": [],
      "stateMutability": "nonpayable",
      "type": "function"
    },
    {
      "inputs": [
        {
          "internalType": "string",
          "name": "fileName",
          "type": "string"
        }
      ],
      "name": "getIPFSHash",
      "outputs": [
        {
          "internalType": "string",
          "name": "",
          "type": "string"
        }
      ],
      "stateMutability": "view",
      "type": "function"
    },
    {
      "inputs": [
        {
          "internalType": "address",
          "name": "user",
          "type": "address"
        },
        {
          "internalType": "string",
          "name": "fileName",
          "type": "string"
        }
      ],
      "name": "getIPFSHashForUser",
      "outputs": [
        {
          "internalType": "string",
          "name": "",
          "type": "string"
        }
      ],
      "stateMutability": "view",
      "type": "function"
    },
    {
      "inputs": [
        {
          "internalType": "address",
          "name": "",
          "type": "address"
        }
      ],
      "name": "isDocumentVerified",
      "outputs": [
        {
          "internalType": "bool",
          "name": "",
          "type": "bool"
        }
      ],
      "stateMutability": "view",
      "type": "function"
    },
    {
      "inputs": [
        {
          "internalType": "string",
          "name": "fileName",
          "type": "string"
        }
      ],
      "name": "isFileStored",
      "outputs": [
        {
          "internalType": "bool",
          "name": "",
          "type": "bool"
        }
      ],
      "stateMutability": "view",
      "type": "function"
    },
    {
      "inputs": [
        {
          "internalType": "address",
          "name": "user",
          "type": "address"
        },
        {
          "internalType": "string",
          "name": "fileName",
          "type": "string"
        }
      ],
      "name": "isFileStoredForUser",
      "outputs": [
        {
          "internalType": "bool",
          "name": "",
          "type": "bool"
        }
      ],
      "stateMutability": "view",
      "type": "function"
    },
    {
      "inputs": [
        {
          "internalType": "address",
          "name": "",
          "type": "address"
        }
      ],
      "name": "isIndianResident",
      "outputs": [
        {
          "internalType": "bool",
          "name": "",
          "type": "bool"
        }
      ],
      "stateMutability": "view",
      "type": "function"
    },
    {
      "inputs": [
        {
          "internalType": "address",
          "name": "",
          "type": "address"
        }
      ],
      "name": "isKYCCompleted",
      "outputs": [
        {
          "internalType": "bool",
          "name": "",
          "type": "bool"
        }
      ],
      "stateMutability": "view",
      "type": "function"
    },
    {
      "inputs": [],
      "name": "owner",
      "outputs": [
        {
          "internalType": "address",
          "name": "",
          "type": "address"
        }
      ],
      "stateMutability": "view",
      "type": "function"
    },
    {
      "inputs": [],
      "name": "renounceOwnership",
      "outputs": [],
      "stateMutability": "nonpayable",
      "type": "function"
    },
    {
      "inputs": [
        {
          "internalType": "address",
          "name": "_user",
          "type": "address"
        }
      ],
      "name": "revokeKYC",
      "outputs": [],
      "stateMutability": "nonpayable",
      "type": "function"
    },
    {
      "inputs": [
        {
          "internalType": "address",
          "name": "_addr",
          "type": "address"
        }
      ],
      "name": "setDocumentRevoked",
      "outputs": [],
      "stateMutability": "nonpayable",
      "type": "function"
    },
    {
      "inputs": [
        {
          "internalType": "address",
          "name": "_addr",
          "type": "address"
        }
      ],
      "name": "setDocumentVerified",
      "outputs": [],
      "stateMutability": "nonpayable",
      "type": "function"
    },
    {
      "inputs": [
        {
          "internalType": "address",
          "name": "newOwner",
          "type": "address"
        }
      ],
      "name": "transferOwnership",
      "outputs": [],
      "stateMutability": "nonpayable",
      "type": "function"
    },
    {
      "inputs": [
        {
          "internalType": "string",
          "name": "fileName",
          "type": "string"
        },
        {
          "internalType": "string",
          "name": "ipfsHash",
          "type": "string"
        }
      ],
      "name": "upload",
      "outputs": [],
      "stateMutability": "nonpayable",
      "type": "function"
    },
    {
      "inputs": [
        {
          "internalType": "string",
          "name": "symbol",
          "type": "string"
        }
      ],
      "name": "totalSupply",
      "outputs": [
        {
          "internalType": "uint256",
          "name": "",
          "type": "uint256"
        }
      ],
      "stateMutability": "view",
      "type": "function"
    },
    {
      "inputs": [
        {
          "internalType": "address",
          "name": "owner",
          "type": "address"
        },
        {
          "internalType": "string",
          "name": "symbol",
          "type": "string"
        }
      ],
      "name": "balanceOf",
      "outputs": [
        {
          "internalType": "uint256",
          "name": "",
          "type": "uint256"
        }
      ],
      "stateMutability": "view",
      "type": "function"
    },
    {
      "inputs": [
        {
          "internalType": "address",
          "name": "_to",
          "type": "address"
        },
        {
          "internalType": "string",
          "name": "symbol",
          "type": "string"
        },
        {
          "internalType": "uint256",
          "name": "_value",
          "type": "uint256"
        }
      ],
      "name": "transfer",
      "outputs": [
        {
          "internalType": "bool",
          "name": "",
          "type": "bool"
        }
      ],
      "stateMutability": "nonpayable",
      "type": "function"
    },
    {
      "inputs": [
        {
          "internalType": "bytes32",
          "name": "_name",
          "type": "bytes32"
        },
        {
          "internalType": "string",
          "name": "_uri",
          "type": "string"
        },
        {
          "internalType": "bytes32",
          "name": "_documentHash",
          "type": "bytes32"
        }
      ],
      "name": "setDocument",
      "outputs": [],
      "stateMutability": "nonpayable",
      "type": "function"
    },
    {
      "inputs": [
        {
          "internalType": "bytes32",
          "name": "_name",
          "type": "bytes32"
        }
      ],
      "name": "removeDocument",
      "outputs": [],
      "stateMutability": "nonpayable",
      "type": "function"
    },
    {
      "inputs": [
        {
          "internalType": "bytes32",
          "name": "_name",
          "type": "bytes32"
        }
      ],
      "name": "getDocument",
      "outputs": [
        {
          "internalType": "string",
          "name": "",
          "type": "string"
        },
        {
          "internalType": "bytes32",
          "name": "",
          "type": "bytes32"
        },
        {
          "internalType": "uint256",
          "name": "",
          "type": "uint256"
        }
      ],
      "stateMutability": "view",
      "type": "function"
    },
    {
      "inputs": [],
      "name": "getAllDocuments",
      "outputs": [
        {
          "internalType": "bytes32[]",
          "name": "",
          "type": "bytes32[]"
        }
      ],
      "stateMutability": "view",
      "type": "function"
    },
    {
      "inputs": [
        {
          "internalType": "address",
          "name": "_to",
          "type": "address"
        },
        {
          "internalType": "string",
          "name": "symbol",
          "type": "string"
        },
        {
          "internalType": "uint256",
          "name": "_value",
          "type": "uint256"
        }
      ],
      "name": "transferWithData",
      "outputs": [],
      "stateMutability": "nonpayable",
      "type": "function"
    },
    {
      "inputs": [],
      "name": "isIssuable",
      "outputs": [
        {
          "internalType": "bool",
          "name": "",
          "type": "bool"
        }
      ],
      "stateMutability": "view",
      "type": "function"
    },
    {
      "inputs": [
        {
          "internalType": "address",
          "name": "_tokenHolder",
          "type": "address"
        },
        {
          "internalType": "string",
          "name": "symbol",
          "type": "string"
        },
        {
          "internalType": "uint256",
          "name": "_value",
          "type": "uint256"
        }
      ],
      "name": "issue",
      "outputs": [],
      "stateMutability": "nonpayable",
      "type": "function"
    },
    {
      "inputs": [
        {
          "internalType": "address",
          "name": "_tokenHolder",
          "type": "address"
        },
        {
          "internalType": "string",
          "name": "symbol",
          "type": "string"
        },
        {
          "internalType": "uint256",
          "name": "_value",
          "type": "uint256"
        }
      ],
      "name": "redeem",
      "outputs": [],
      "stateMutability": "nonpayable",
      "type": "function"
    },
    {
      "inputs": [
        {
          "internalType": "address",
          "name": "_to",
          "type": "address"
        },
        {
          "internalType": "string",
          "name": "symbol",
          "type": "string"
        },
        {
          "internalType": "uint256",
          "name": "_value",
          "type": "uint256"
        }
      ],
      "name": "canTransfer",
      "outputs": [
        {
          "internalType": "bool",
          "name": "",
          "type": "bool"
        },
        {
          "internalType": "bytes1",
          "name": "",
          "type": "bytes1"
        },
        {
          "internalType": "bytes32",
          "name": "",
          "type": "bytes32"
        }
      ],
      "stateMutability": "view",
      "type": "function"
    }
  ],
  "bytecode": "0x608060405234801562000010575f80fd5b506040516200371938038062003719833981810160405281019062000036919062000205565b80805f73ffffffffffffffffffffffffffffffffffffffff168173ffffffffffffffffffffffffffffffffffffffff1603620000ab575f6040517f1e4fbdf7000000000000000000000000000000000000000000000000000000008152600401620000a2919062000246565b60405180910390fd5b620000bc81620000df60201b60201c565b5050600160065f6101000a81548160ff0219169083151502179055505062000261565b5f805f9054906101000a900473ffffffffffffffffffffffffffffffffffffffff169050815f806101000a81548173ffffffffffffffffffffffffffffffffffffffff021916908373ffffffffffffffffffffffffffffffffffffffff1602179055508173ffffffffffffffffffffffffffffffffffffffff168173ffffffffffffffffffffffffffffffffffffffff167f8be0079c531659141344cd1fd0a4f28419497f9722a3daafe3b4186f6b6457e060405160405180910390a35050565b5f80fd5b5f73ffffffffffffffffffffffffffffffffffffffff82169050919050565b5f620001cf82620001a4565b9050919050565b620001e181620001c3565b8114620001ec575f80fd5b50565b5f81519050620001ff81620001d6565b92915050565b5f602082840312156200021d576200021c620001a0565b5b5f6200022c84828501620001ef565b91505092915050565b6200024081620001c3565b82525050565b5f6020820190506200025b5f83018462000235565b92915050565b6134aa806200026f5f395ff3fe608060405234801561000f575f80fd5b50600436106101e3575f3560e01c806398b4610e1161010d578063c3501848116100a0578063eba1ed3b1161006f578063eba1ed3b146105d7578063f2fde38b14610607578063fb2ad1c114610623578063fff3a01b14610653576101e3565b8063c35018481461052b578063c415db1314610547578063cec9bfd914610577578063e0956ad0146105a7576101e3565b8063af3eed72116100dc578063af3eed7214610469578063b10d6b4114610499578063b9b092c8146104cb578063c14a890d146104fb576101e3565b806398b4610e146103cd5780639fa5f50b146103fd578063adb2f71f1461041b578063aef7363214610437576101e3565b806339ba645b11610185578063715018a611610154578063715018a61461036d5780637f1c83a714610377578063868571ef146103935780638da5cb5b146103af576101e3565b806339ba645b146102c1578063486862e9146102dd5780634a5f66c11461030d57806365c84ee81461033d576101e3565b80631082dffe116101c15780631082dffe1461023b5780631b33779a1461026b578063202e4936146102875780632f1cae85146102a3576101e3565b8063010648ca146101e757806301ae70dd1461020357806305f8ce271461021f575b5f80fd5b61020160048036038101906101fc91906122af565b610683565b005b61021d600480360381019061021891906124e5565b61084d565b005b610239600480360381019061023491906124e5565b6108a7565b005b61025560048036038101906102509190612551565b6109b6565b6040516102629190612596565b60405180910390f35b610285600480360381019061028091906125af565b6109d3565b005b6102a1600480360381019061029c9190612609565b610b17565b005b6102ab610cb0565b6040516102b89190612596565b60405180910390f35b6102db60048036038101906102d69190612551565b610cc5565b005b6102f760048036038101906102f29190612551565b610dd1565b6040516103049190612596565b60405180910390f35b6103276004803603810190610322919061267f565b610e23565b6040516103349190612740565b60405180910390f35b61035760048036038101906103529190612551565b610fb9565b6040516103649190612596565b60405180910390f35b61037561100b565b005b610391600480360381019061038c9190612551565b61101e565b005b6103ad60048036038101906103a891906124e5565b61107e565b005b6103b76110f5565b6040516103c4919061276f565b60405180910390f35b6103e760048036038101906103e291906125af565b61111c565b6040516103f49190612596565b60405180910390f35b610405611190565b604051610412919061283f565b60405180910390f35b61043560048036038101906104309190612551565b6111e6565b005b610451600480360381019061044c91906124e5565b611245565b604051610460939291906128a8565b60405180910390f35b610483600480360381019061047e91906125af565b6113ee565b6040516104909190612740565b60405180910390f35b6104b360048036038101906104ae91906128dd565b611585565b6040516104c293929190612917565b60405180910390f35b6104e560048036038101906104e091906125af565b61165d565b6040516104f29190612953565b60405180910390f35b61051560048036038101906105109190612551565b6116c0565b6040516105229190612596565b60405180910390f35b610545600480360381019061054091906128dd565b611712565b005b610561600480360381019061055c919061267f565b6118ef565b60405161056e9190612953565b60405180910390f35b610591600480360381019061058c9190612551565b611916565b60405161059e9190612596565b60405180910390f35b6105c160048036038101906105bc919061267f565b611933565b6040516105ce9190612596565b60405180910390f35b6105f160048036038101906105ec9190612551565b6119a6565b6040516105fe9190612596565b60405180910390f35b610621600480360381019061061c9190612551565b6119c3565b005b61063d60048036038101906106389190612551565b611a47565b60405161064a9190612740565b60405180910390f35b61066d600480360381019061066891906124e5565b611ae2565b60405161067a9190612596565b60405180910390f35b61068b611afa565b5f801b84036106cf576040517f08c379a00000000000000000000000000000000000000000000000000000000081526004016106c6906129b6565b60405180910390fd5b5f8383905011610714576040517f08c379a000000000000000000000000000000000000000000000000000000000815260040161070b90612a1e565b60405180910390fd5b5f60095f8681526020019081526020015f20600101540361077157600b84908060018154018082558091505060019003905f5260205f20015f9091909190915055600b80549050600a5f8681526020019081526020015f20819055505b604051806060016040528082815260200142815260200184848080601f0160208091040260200160405190810160405280939291908181526020018383808284375f81840152601f19601f8201169050808301925050505050505081525060095f8681526020019081526020015f205f820151815f01556020820151816001015560408201518160020190816108079190612c36565b50905050837fb4c22d60cd550a815744f04e3ff5278bf19684565ee00e2b084041b6024bd6f684848460405161083f93929190612d31565b60405180910390a250505050565b6108573384611b81565b610896576040517f08c379a000000000000000000000000000000000000000000000000000000000815260040161088d90612dab565b60405180910390fd5b6108a1838383611ae2565b50505050565b6108af611afa565b6108b93384611b81565b6108f8576040517f08c379a00000000000000000000000000000000000000000000000000000000081526004016108ef90612dab565b60405180910390fd5b610900610cb0565b61093f576040517f08c379a000000000000000000000000000000000000000000000000000000000815260040161093690612e13565b60405180910390fd5b61094a838383611cac565b8273ffffffffffffffffffffffffffffffffffffffff163373ffffffffffffffffffffffffffffffffffffffff167f291499937407f152cc3db179be5cf983ffc161452a47a908b7f4f059ded2b07584846040516109a9929190612e31565b60405180910390a3505050565b6001602052805f5260405f205f915054906101000a900460ff1681565b6109db611afa565b600c815114610a1f576040517f08c379a0000000000000000000000000000000000000000000000000000000008152600401610a1690612ea9565b60405180910390fd5b6001805f8473ffffffffffffffffffffffffffffffffffffffff1673ffffffffffffffffffffffffffffffffffffffff1681526020019081526020015f205f6101000a81548160ff021916908315150217905550600160025f8473ffffffffffffffffffffffffffffffffffffffff1673ffffffffffffffffffffffffffffffffffffffff1681526020019081526020015f205f6101000a81548160ff0219169083151502179055508060035f8473ffffffffffffffffffffffffffffffffffffffff1673ffffffffffffffffffffffffffffffffffffffff1681526020019081526020015f209081610b129190612c36565b505050565b5f60055f3373ffffffffffffffffffffffffffffffffffffffff1673ffffffffffffffffffffffffffffffffffffffff1681526020019081526020015f2083604051610b639190612f01565b90815260200160405180910390206001018054610b7f90612a69565b905014610bc1576040517f08c379a0000000000000000000000000000000000000000000000000000000008152600401610bb890612f61565b60405180910390fd5b60405180604001604052808381526020018281525060055f3373ffffffffffffffffffffffffffffffffffffffff1673ffffffffffffffffffffffffffffffffffffffff1681526020019081526020015f2083604051610c219190612f01565b90815260200160405180910390205f820151815f019081610c429190612c36565b506020820151816001019081610c589190612c36565b509050503373ffffffffffffffffffffffffffffffffffffffff167f2f82310531f67ec4eae39b4f0d4e2ea9a5e6da4bb8f084adb414ec441b761c5d8383604051610ca4929190612f7f565b60405180910390a25050565b5f60065f9054906101000a900460ff16905090565b610ccd611afa565b5f60015f8373ffffffffffffffffffffffffffffffffffffffff1673ffffffffffffffffffffffffffffffffffffffff1681526020019081526020015f205f6101000a81548160ff0219169083151502179055505f60025f8373ffffffffffffffffffffffffffffffffffffffff1673ffffffffffffffffffffffffffffffffffffffff1681526020019081526020015f205f6101000a81548160ff02191690831515021790555060405180602001604052805f81525060035f8373ffffffffffffffffffffffffffffffffffffffff1673ffffffffffffffffffffffffffffffffffffffff1681526020019081526020015f209081610dcd9190612c36565b5050565b5f60045f8373ffffffffffffffffffffffffffffffffffffffff1673ffffffffffffffffffffffffffffffffffffffff1681526020019081526020015f205f9054906101000a900460ff169050919050565b60605f60055f3373ffffffffffffffffffffffffffffffffffffffff1673ffffffffffffffffffffffffffffffffffffffff1681526020019081526020015f2083604051610e719190612f01565b90815260200160405180910390206001018054610e8d90612a69565b905011610ecf576040517f08c379a0000000000000000000000000000000000000000000000000000000008152600401610ec690612ffe565b60405180910390fd5b60055f3373ffffffffffffffffffffffffffffffffffffffff1673ffffffffffffffffffffffffffffffffffffffff1681526020019081526020015f2082604051610f1a9190612f01565b90815260200160405180910390206001018054610f3690612a69565b80601f0160208091040260200160405190810160405280929190818152602001828054610f6290612a69565b8015610fad5780601f10610f8457610100808354040283529160200191610fad565b820191905f5260205f20905b815481529060010190602001808311610f9057829003601f168201915b50505050509050919050565b5f60015f8373ffffffffffffffffffffffffffffffffffffffff1673ffffffffffffffffffffffffffffffffffffffff1681526020019081526020015f205f9054906101000a900460ff169050919050565b611013611afa565b61101c5f611dc2565b565b611026611afa565b600160045f8373ffffffffffffffffffffffffffffffffffffffff1673ffffffffffffffffffffffffffffffffffffffff1681526020019081526020015f205f6101000a81548160ff02191690831515021790555050565b611089838383611e83565b8273ffffffffffffffffffffffffffffffffffffffff163373ffffffffffffffffffffffffffffffffffffffff167fe442438f977cf13ed122d2e3462b1afe5a74fc3ad80af33b4962d673a5bbd37184846040516110e8929190612e31565b60405180910390a3505050565b5f805f9054906101000a900473ffffffffffffffffffffffffffffffffffffffff16905090565b5f8060055f8573ffffffffffffffffffffffffffffffffffffffff1673ffffffffffffffffffffffffffffffffffffffff1681526020019081526020015f20836040516111699190612f01565b9081526020016040518091039020600101805461118590612a69565b905011905092915050565b6060600b8054806020026020016040519081016040528092919081815260200182805480156111dc57602002820191905f5260205f20905b8154815260200190600101908083116111c8575b5050505050905090565b6111ee611afa565b5f60045f8373ffffffffffffffffffffffffffffffffffffffff1673ffffffffffffffffffffffffffffffffffffffff1681526020019081526020015f205f6101000a81548160ff02191690831515021790555050565b5f805f6112523387611b81565b611291576040517f08c379a000000000000000000000000000000000000000000000000000000000815260040161128890612dab565b60405180910390fd5b8360075f3373ffffffffffffffffffffffffffffffffffffffff1673ffffffffffffffffffffffffffffffffffffffff1681526020019081526020015f20866040516112dd9190612f01565b9081526020016040518091039020541015611309575f60525f801b8160f81b91509250925092506113e5565b5f73ffffffffffffffffffffffffffffffffffffffff168673ffffffffffffffffffffffffffffffffffffffff1603611353575f60575f801b8160f81b91509250925092506113e5565b6113b660075f8873ffffffffffffffffffffffffffffffffffffffff1673ffffffffffffffffffffffffffffffffffffffff1681526020019081526020015f20866040516113a19190612f01565b90815260200160405180910390205485611ffe565b6113d1575f60505f801b8160f81b91509250925092506113e5565b600160515f801b8160f81b91509250925092505b93509350939050565b60605f60055f8573ffffffffffffffffffffffffffffffffffffffff1673ffffffffffffffffffffffffffffffffffffffff1681526020019081526020015f208360405161143c9190612f01565b9081526020016040518091039020600101805461145890612a69565b90501161149a576040517f08c379a000000000000000000000000000000000000000000000000000000000815260040161149190612ffe565b60405180910390fd5b60055f8473ffffffffffffffffffffffffffffffffffffffff1673ffffffffffffffffffffffffffffffffffffffff1681526020019081526020015f20826040516114e59190612f01565b9081526020016040518091039020600101805461150190612a69565b80601f016020809104026020016040519081016040528092919081815260200182805461152d90612a69565b80156115785780601f1061154f57610100808354040283529160200191611578565b820191905f5260205f20905b81548152906001019060200180831161155b57829003601f168201915b5050505050905092915050565b60605f8060095f8581526020019081526020015f2060020160095f8681526020019081526020015f205f015460095f8781526020019081526020015f20600101548280546115d290612a69565b80601f01602080910402602001604051908101604052809291908181526020018280546115fe90612a69565b80156116495780601f1061162057610100808354040283529160200191611649565b820191905f5260205f20905b81548152906001019060200180831161162c57829003601f168201915b505050505092509250925092509193909250565b5f60075f8473ffffffffffffffffffffffffffffffffffffffff1673ffffffffffffffffffffffffffffffffffffffff1681526020019081526020015f20826040516116a99190612f01565b908152602001604051809103902054905092915050565b5f60025f8373ffffffffffffffffffffffffffffffffffffffff1673ffffffffffffffffffffffffffffffffffffffff1681526020019081526020015f205f9054906101000a900460ff169050919050565b61171a611afa565b5f60095f8381526020019081526020015f206001015403611770576040517f08c379a000000000000000000000000000000000000000000000000000000000815260040161176790613066565b60405180910390fd5b5f6001600a5f8481526020019081526020015f205461178f91906130b1565b90506001600b805490506117a391906130b1565b811461183657600b6001600b805490506117bd91906130b1565b815481106117ce576117cd6130e4565b5b905f5260205f200154600b82815481106117eb576117ea6130e4565b5b905f5260205f2001819055506001816118049190613111565b600a5f600b848154811061181b5761181a6130e4565b5b905f5260205f20015481526020019081526020015f20819055505b600b80548061184857611847613144565b5b600190038181905f5260205f20015f90559055817f3d9bba27d3e360d8c80645beed7e991454a8271bf6f269a24f7782be0f0d065460095f8581526020019081526020015f2060020160095f8681526020019081526020015f205f01546040516118b39291906131f2565b60405180910390a260095f8381526020019081526020015f205f8082015f9055600182015f9055600282015f6118e991906121b2565b50505050565b5f6008826040516119009190612f01565b9081526020016040518091039020549050919050565b6004602052805f5260405f205f915054906101000a900460ff1681565b5f8060055f3373ffffffffffffffffffffffffffffffffffffffff1673ffffffffffffffffffffffffffffffffffffffff1681526020019081526020015f20836040516119809190612f01565b9081526020016040518091039020600101805461199c90612a69565b9050119050919050565b6002602052805f5260405f205f915054906101000a900460ff1681565b6119cb611afa565b5f73ffffffffffffffffffffffffffffffffffffffff168173ffffffffffffffffffffffffffffffffffffffff1603611a3b575f6040517f1e4fbdf7000000000000000000000000000000000000000000000000000000008152600401611a32919061276f565b60405180910390fd5b611a4481611dc2565b50565b6003602052805f5260405f205f915090508054611a6390612a69565b80601f0160208091040260200160405190810160405280929190818152602001828054611a8f90612a69565b8015611ada5780601f10611ab157610100808354040283529160200191611ada565b820191905f5260205f20905b815481529060010190602001808311611abd57829003601f168201915b505050505081565b5f611aef3385858561202b565b600190509392505050565b611b026121ab565b73ffffffffffffffffffffffffffffffffffffffff16611b206110f5565b73ffffffffffffffffffffffffffffffffffffffff1614611b7f57611b436121ab565b6040517f118cdaa7000000000000000000000000000000000000000000000000000000008152600401611b76919061276f565b60405180910390fd5b565b5f611b8b83610fb9565b611bca576040517f08c379a0000000000000000000000000000000000000000000000000000000008152600401611bc19061326a565b60405180910390fd5b611bd382610fb9565b611c12576040517f08c379a0000000000000000000000000000000000000000000000000000000008152600401611c09906132f8565b60405180910390fd5b611c1b836116c0565b611c5a576040517f08c379a0000000000000000000000000000000000000000000000000000000008152600401611c5190613360565b60405180910390fd5b611c63826116c0565b611ca2576040517f08c379a0000000000000000000000000000000000000000000000000000000008152600401611c99906133ee565b60405180910390fd5b6001905092915050565b5f73ffffffffffffffffffffffffffffffffffffffff168373ffffffffffffffffffffffffffffffffffffffff1603611d1a576040517f08c379a0000000000000000000000000000000000000000000000000000000008152600401611d1190613456565b60405180910390fd5b80600883604051611d2b9190612f01565b90815260200160405180910390205f828254611d479190613111565b925050819055508060075f8573ffffffffffffffffffffffffffffffffffffffff1673ffffffffffffffffffffffffffffffffffffffff1681526020019081526020015f2083604051611d9a9190612f01565b90815260200160405180910390205f828254611db69190613111565b92505081905550505050565b5f805f9054906101000a900473ffffffffffffffffffffffffffffffffffffffff169050815f806101000a81548173ffffffffffffffffffffffffffffffffffffffff021916908373ffffffffffffffffffffffffffffffffffffffff1602179055508173ffffffffffffffffffffffffffffffffffffffff168173ffffffffffffffffffffffffffffffffffffffff167f8be0079c531659141344cd1fd0a4f28419497f9722a3daafe3b4186f6b6457e060405160405180910390a35050565b5f73ffffffffffffffffffffffffffffffffffffffff168373ffffffffffffffffffffffffffffffffffffffff1603611ef1576040517f08c379a0000000000000000000000000000000000000000000000000000000008152600401611ee890613456565b60405180910390fd5b60075f8473ffffffffffffffffffffffffffffffffffffffff1673ffffffffffffffffffffffffffffffffffffffff1681526020019081526020015f2082604051611f3c9190612f01565b908152602001604051809103902054811115611f56575f80fd5b80600883604051611f679190612f01565b90815260200160405180910390205f828254611f8391906130b1565b925050819055508060075f8573ffffffffffffffffffffffffffffffffffffffff1673ffffffffffffffffffffffffffffffffffffffff1681526020019081526020015f2083604051611fd69190612f01565b90815260200160405180910390205f828254611ff291906130b1565b92505081905550505050565b5f80828461200c9190613111565b90508381101561201f575f915050612025565b60019150505b92915050565b60075f8573ffffffffffffffffffffffffffffffffffffffff1673ffffffffffffffffffffffffffffffffffffffff1681526020019081526020015f20826040516120769190612f01565b908152602001604051809103902054811115612090575f80fd5b5f73ffffffffffffffffffffffffffffffffffffffff168373ffffffffffffffffffffffffffffffffffffffff16036120c7575f80fd5b8060075f8673ffffffffffffffffffffffffffffffffffffffff1673ffffffffffffffffffffffffffffffffffffffff1681526020019081526020015f20836040516121139190612f01565b90815260200160405180910390205f82825461212f91906130b1565b925050819055508060075f8573ffffffffffffffffffffffffffffffffffffffff1673ffffffffffffffffffffffffffffffffffffffff1681526020019081526020015f20836040516121829190612f01565b90815260200160405180910390205f82825461219e9190613111565b9250508190555050505050565b5f33905090565b5080546121be90612a69565b5f825580601f106121cf57506121ec565b601f0160209004905f5260205f20908101906121eb91906121ef565b5b50565b5b80821115612206575f815f9055506001016121f0565b5090565b5f604051905090565b5f80fd5b5f80fd5b5f819050919050565b61222d8161221b565b8114612237575f80fd5b50565b5f8135905061224881612224565b92915050565b5f80fd5b5f80fd5b5f80fd5b5f8083601f84011261226f5761226e61224e565b5b8235905067ffffffffffffffff81111561228c5761228b612252565b5b6020830191508360018202830111156122a8576122a7612256565b5b9250929050565b5f805f80606085870312156122c7576122c6612213565b5b5f6122d48782880161223a565b945050602085013567ffffffffffffffff8111156122f5576122f4612217565b5b6123018782880161225a565b935093505060406123148782880161223a565b91505092959194509250565b5f73ffffffffffffffffffffffffffffffffffffffff82169050919050565b5f61234982612320565b9050919050565b6123598161233f565b8114612363575f80fd5b50565b5f8135905061237481612350565b92915050565b5f80fd5b5f601f19601f8301169050919050565b7f4e487b71000000000000000000000000000000000000000000000000000000005f52604160045260245ffd5b6123c48261237e565b810181811067ffffffffffffffff821117156123e3576123e261238e565b5b80604052505050565b5f6123f561220a565b905061240182826123bb565b919050565b5f67ffffffffffffffff8211156124205761241f61238e565b5b6124298261237e565b9050602081019050919050565b828183375f83830152505050565b5f61245661245184612406565b6123ec565b9050828152602081018484840111156124725761247161237a565b5b61247d848285612436565b509392505050565b5f82601f8301126124995761249861224e565b5b81356124a9848260208601612444565b91505092915050565b5f819050919050565b6124c4816124b2565b81146124ce575f80fd5b50565b5f813590506124df816124bb565b92915050565b5f805f606084860312156124fc576124fb612213565b5b5f61250986828701612366565b935050602084013567ffffffffffffffff81111561252a57612529612217565b5b61253686828701612485565b9250506040612547868287016124d1565b9150509250925092565b5f6020828403121561256657612565612213565b5b5f61257384828501612366565b91505092915050565b5f8115159050919050565b6125908161257c565b82525050565b5f6020820190506125a95f830184612587565b92915050565b5f80604083850312156125c5576125c4612213565b5b5f6125d285828601612366565b925050602083013567ffffffffffffffff8111156125f3576125f2612217565b5b6125ff85828601612485565b9150509250929050565b5f806040838503121561261f5761261e612213565b5b5f83013567ffffffffffffffff81111561263c5761263b612217565b5b61264885828601612485565b925050602083013567ffffffffffffffff81111561266957612668612217565b5b61267585828601612485565b9150509250929050565b5f6020828403121561269457612693612213565b5b5f82013567ffffffffffffffff8111156126b1576126b0612217565b5b6126bd84828501612485565b91505092915050565b5f81519050919050565b5f82825260208201905092915050565b5f5b838110156126fd5780820151818401526020810190506126e2565b5f8484015250505050565b5f612712826126c6565b61271c81856126d0565b935061272c8185602086016126e0565b6127358161237e565b840191505092915050565b5f6020820190508181035f8301526127588184612708565b905092915050565b6127698161233f565b82525050565b5f6020820190506127825f830184612760565b92915050565b5f81519050919050565b5f82825260208201905092915050565b5f819050602082019050919050565b6127ba8161221b565b82525050565b5f6127cb83836127b1565b60208301905092915050565b5f602082019050919050565b5f6127ed82612788565b6127f78185612792565b9350612802836127a2565b805f5b8381101561283257815161281988826127c0565b9750612824836127d7565b925050600181019050612805565b5085935050505092915050565b5f6020820190508181035f83015261285781846127e3565b905092915050565b5f7fff0000000000000000000000000000000000000000000000000000000000000082169050919050565b6128938161285f565b82525050565b6128a28161221b565b82525050565b5f6060820190506128bb5f830186612587565b6128c8602083018561288a565b6128d56040830184612899565b949350505050565b5f602082840312156128f2576128f1612213565b5b5f6128ff8482850161223a565b91505092915050565b612911816124b2565b82525050565b5f6060820190508181035f83015261292f8186612708565b905061293e6020830185612899565b61294b6040830184612908565b949350505050565b5f6020820190506129665f830184612908565b92915050565b7f5a65726f2076616c7565206973206e6f7420616c6c6f776564000000000000005f82015250565b5f6129a06019836126d0565b91506129ab8261296c565b602082019050919050565b5f6020820190508181035f8301526129cd81612994565b9050919050565b7f53686f756c64206e6f74206265206120656d70747920757269000000000000005f82015250565b5f612a086019836126d0565b9150612a13826129d4565b602082019050919050565b5f6020820190508181035f830152612a35816129fc565b9050919050565b7f4e487b71000000000000000000000000000000000000000000000000000000005f52602260045260245ffd5b5f6002820490506001821680612a8057607f821691505b602082108103612a9357612a92612a3c565b5b50919050565b5f819050815f5260205f209050919050565b5f6020601f8301049050919050565b5f82821b905092915050565b5f60088302612af57fffffffffffffffffffffffffffffffffffffffffffffffffffffffffffffffff82612aba565b612aff8683612aba565b95508019841693508086168417925050509392505050565b5f819050919050565b5f612b3a612b35612b30846124b2565b612b17565b6124b2565b9050919050565b5f819050919050565b612b5383612b20565b612b67612b5f82612b41565b848454612ac6565b825550505050565b5f90565b612b7b612b6f565b612b86818484612b4a565b505050565b5b81811015612ba957612b9e5f82612b73565b600181019050612b8c565b5050565b601f821115612bee57612bbf81612a99565b612bc884612aab565b81016020851015612bd7578190505b612beb612be385612aab565b830182612b8b565b50505b505050565b5f82821c905092915050565b5f612c0e5f1984600802612bf3565b1980831691505092915050565b5f612c268383612bff565b9150826002028217905092915050565b612c3f826126c6565b67ffffffffffffffff811115612c5857612c5761238e565b5b612c628254612a69565b612c6d828285612bad565b5f60209050601f831160018114612c9e575f8415612c8c578287015190505b612c968582612c1b565b865550612cfd565b601f198416612cac86612a99565b5f5b82811015612cd357848901518255600182019150602085019450602081019050612cae565b86831015612cf05784890151612cec601f891682612bff565b8355505b6001600288020188555050505b505050505050565b5f612d1083856126d0565b9350612d1d838584612436565b612d268361237e565b840190509392505050565b5f6040820190508181035f830152612d4a818587612d05565b9050612d596020830184612899565b949350505050565b7f496e76616c696420646174612070726f766964656400000000000000000000005f82015250565b5f612d956015836126d0565b9150612da082612d61565b602082019050919050565b5f6020820190508181035f830152612dc281612d89565b9050919050565b7f49737375616e636520697320636c6f73656400000000000000000000000000005f82015250565b5f612dfd6012836126d0565b9150612e0882612dc9565b602082019050919050565b5f6020820190508181035f830152612e2a81612df1565b9050919050565b5f6040820190508181035f830152612e498185612708565b9050612e586020830184612908565b9392505050565b7f496e76616c696420416164686172206e756d62657200000000000000000000005f82015250565b5f612e936015836126d0565b9150612e9e82612e5f565b602082019050919050565b5f6020820190508181035f830152612ec081612e87565b9050919050565b5f81905092915050565b5f612edb826126c6565b612ee58185612ec7565b9350612ef58185602086016126e0565b80840191505092915050565b5f612f0c8284612ed1565b915081905092915050565b7f46696c6520616c726561647920657869737473000000000000000000000000005f82015250565b5f612f4b6013836126d0565b9150612f5682612f17565b602082019050919050565b5f6020820190508181035f830152612f7881612f3f565b9050919050565b5f6040820190508181035f830152612f978185612708565b90508181036020830152612fab8184612708565b90509392505050565b7f46696c65206e6f7420666f756e640000000000000000000000000000000000005f82015250565b5f612fe8600e836126d0565b9150612ff382612fb4565b602082019050919050565b5f6020820190508181035f83015261301581612fdc565b9050919050565b7f446f63756d656e742073686f756c6420626520657869737465640000000000005f82015250565b5f613050601a836126d0565b915061305b8261301c565b602082019050919050565b5f6020820190508181035f83015261307d81613044565b9050919050565b7f4e487b71000000000000000000000000000000000000000000000000000000005f52601160045260245ffd5b5f6130bb826124b2565b91506130c6836124b2565b92508282039050818111156130de576130dd613084565b5b92915050565b7f4e487b71000000000000000000000000000000000000000000000000000000005f52603260045260245ffd5b5f61311b826124b2565b9150613126836124b2565b925082820190508082111561313e5761313d613084565b5b92915050565b7f4e487b71000000000000000000000000000000000000000000000000000000005f52603160045260245ffd5b5f815461317d81612a69565b61318781866126d0565b9450600182165f81146131a157600181146131b7576131e9565b60ff1983168652811515602002860193506131e9565b6131c085612a99565b5f5b838110156131e1578154818901526001820191506020810190506131c2565b808801955050505b50505092915050565b5f6040820190508181035f83015261320a8185613171565b90506132196020830184612899565b9392505050565b7f53656e6465722061646472657373206e6f74204b5943207665726966696564005f82015250565b5f613254601f836126d0565b915061325f82613220565b602082019050919050565b5f6020820190508181035f83015261328181613248565b9050919050565b7f526563697069656e742061646472657373206e6f74204b5943207665726966695f8201527f6564000000000000000000000000000000000000000000000000000000000000602082015250565b5f6132e26022836126d0565b91506132ed82613288565b604082019050919050565b5f6020820190508181035f83015261330f816132d6565b9050919050565b7f53656e646572206973206e6f7420616e20496e6469616e207265736964656e745f82015250565b5f61334a6020836126d0565b915061335582613316565b602082019050919050565b5f6020820190508181035f8301526133778161333e565b9050919050565b7f526563697069656e74206973206e6f7420616e20496e6469616e2072657369645f8201527f656e740000000000000000000000000000000000000000000000000000000000602082015250565b5f6133d86023836126d0565b91506133e38261337e565b604082019050919050565b5f6020820190508181035f830152613405816133cc565b9050919050565b7f4163636f756e742063616e6e6f74206265207a65726f206164647265737300005f82015250565b5f613440601e836126d0565b915061344b8261340c565b602082019050919050565b5f6020820190508181035f83015261346d81613434565b905091905056fea264697066735822122007ba5fceb751c6fccef0da61e1e266bb1796b170913916fa937473071e1261d864736f6c63430008150033",
  "immutableReferences": {},
  "source": "\r\n// SPDX-License-Identifier: MIT\r\npragma solidity ^0.8.0;\r\n\r\n\r\nimport \"./IERC1400.sol\";\r\nimport \"./KYC.sol\";\r\nimport \"./IPFShashStorage.sol\";\r\nimport \"../math/KindMath.sol\";\r\nimport \"@openzeppelin/contracts/access/Ownable.sol\";\r\n\r\n\r\n\r\n /**************************************** ERC1400 TokenStandard **************************************/\r\n\r\n\r\n\r\ncontract ERC1400 is IERC1400,KYC,IPFShashStorage{\r\n\r\n\r\n\r\n /**************************************** Token behaviours **************************************/\r\n  bool internal _isIssuable;\r\n\r\n\r\n/********************************** ERC20 Token mappings ****************************************/\r\n\r\n    mapping(address => mapping(string => uint256)) internal _balances;\r\n\r\n    mapping(string => uint256) internal _totalSupply;\r\n\r\n\r\n/**************************************** Documents *********************************************/\r\nstruct Document {\r\n        bytes32 docHash; // Hash of the document\r\n        uint256 lastModified; // Timestamp at which document details was last modified\r\n        string uri; // URI of the document that exist off-chain\r\n    }\r\n\r\n    // mapping to store the documents details in the document\r\n    mapping(bytes32 => Document) internal _documents;\r\n\r\n    // mapping to store the document name indexes\r\n    mapping(bytes32 => uint256) internal _docIndexes;\r\n\r\n    // Array use to store all the document name present in the contracts\r\n    bytes32[] _docNames;\r\n\r\n\r\n\r\n/// Constructor\r\n\r\nconstructor(address _adminAddress) KYC(_adminAddress) {\r\n        \r\n        _isIssuable = true;\r\n     \r\n    }\r\n\r\n\r\n/***************************************************************************************************/\r\n/****************************** FUNCTIONS (ERC20 INTERFACE) ****************************/\r\n/***************************************************************************************************/\r\n\r\n    /**\r\n     * @dev Total number of tokens in existence\r\n     */\r\n    function totalSupply(string memory symbol) public view returns (uint256) {\r\n        return _totalSupply[symbol];\r\n    }\r\n\r\n    /**\r\n     * @dev Gets the balance of the specified address.\r\n     * @param owner The address to query the balance of.\r\n     * @return An uint256 representing the amount owned by the passed address.\r\n     */\r\n    function balanceOf(address owner,string memory symbol) public view returns (uint256) {\r\n        return _balances[owner][symbol];\r\n    }\r\n\r\n\r\n\r\n    function transfer(address _to, string memory symbol,uint256 _value) public returns (bool) {\r\n        _transfer(msg.sender, _to,symbol, _value);\r\n        return true;\r\n    }\r\n\r\n    \r\n       function _transfer(address from, address _to,string memory symbol, uint256 _value) internal {\r\n        require(_value <= _balances[from][symbol]);\r\n        require(_to != address(0));\r\n        _balances[from][symbol] -= _value ;\r\n        _balances[_to][symbol] += _value;\r\n        //emit _transfer(from, to,symbol, value);\r\n    }\r\n\r\n\r\n /**\r\n     * @dev Internal function that mints an amount of the token and assigns it to\r\n     * an account. This encapsulates the modification of balances such that the\r\n     * proper events are emitted.\r\n     * @param account The account that will receive the created tokens.\r\n     * @param value The amount that will be created.\r\n     */\r\n    function _mint(address account,string memory symbol, uint256 value) internal {\r\n        require(account != address(0), \"Account cannot be zero address\");\r\n\r\n        _totalSupply[symbol] += value;\r\n        _balances[account][symbol] += value;\r\n        //emit _transfer(address(0), account,symbol, value);\r\n    }\r\n\r\n    /**\r\n     * @dev Internal function that burns an amount of the token of a given\r\n     * account.\r\n     * @param account The account whose tokens will be burnt.\r\n     * @param value The amount that will be burnt.\r\n     */\r\n    function _burn(address account,string memory symbol, uint256 value) internal {\r\n        require(account != address(0), \"Account cannot be zero address\");\r\n\r\n        require(value <= _balances[account][symbol]);\r\n\r\n        _totalSupply[symbol] -= value;\r\n        _balances[account][symbol] -= value;\r\n        //emit _transfer(account, address(0), symbol,value);\r\n    }\r\n\r\n/***************************************************************************************************/\r\n/****************************** EXTERNAL FUNCTIONS (ERC1400 INTERFACE) ****************************/\r\n/***************************************************************************************************/\r\n\r\n\r\n\r\n/************************************* Document Management **************************************/\r\n    /**\r\n     * @notice Used to attach a new document to the contract, or update the URI or hash of an existing attached document\r\n     * @dev Can only be executed by the owner of the contract.\r\n     * @param _name Name of the document. It should be unique always\r\n     * @param _uri Off-chain uri of the document from where it is accessible to investors/advisors to read.\r\n     * @param _documentHash hash (of the contents) of the document.\r\n     */\r\n    function setDocument(bytes32 _name, string calldata _uri, bytes32 _documentHash) external onlyOwner {\r\n        \r\n        require(_name != bytes32(0), \"Zero value is not allowed\");\r\n        require(bytes(_uri).length > 0, \"Should not be a empty uri\");\r\n        if (_documents[_name].lastModified == uint256(0)) {\r\n            _docNames.push(_name);\r\n            _docIndexes[_name] = _docNames.length;\r\n        }\r\n        _documents[_name] = Document(_documentHash, block.timestamp, _uri);\r\n        emit DocumentUpdated(_name, _uri, _documentHash);\r\n    }\r\n\r\n    /**\r\n     * @notice Used to remove an existing document from the contract by giving the name of the document.\r\n     * @dev Can only be executed by the owner of the contract.\r\n     * @param _name Name of the document. It should be unique always\r\n     */\r\n    function removeDocument(bytes32 _name) external onlyOwner {\r\n        require(_documents[_name].lastModified != uint256(0), \"Document should be existed\");\r\n        uint256 index = _docIndexes[_name] - 1;\r\n        if (index != _docNames.length - 1) {\r\n            _docNames[index] = _docNames[_docNames.length - 1];\r\n            _docIndexes[_docNames[index]] = index + 1; \r\n        }\r\n        _docNames.pop();\r\n        emit DocumentRemoved(_name, _documents[_name].uri, _documents[_name].docHash);\r\n        delete _documents[_name];\r\n    }\r\n\r\n    /**\r\n     * @notice Used to return the details of a document with a known name (`bytes32`).\r\n     * @param _name Name of the document\r\n     * @return string The URI associated with the document.\r\n     * @return bytes32 The hash (of the contents) of the document.\r\n     * @return uint256 the timestamp at which the document was last modified.\r\n     */\r\n    function getDocument(bytes32 _name) external view returns (string memory, bytes32, uint256) {\r\n        return (\r\n            _documents[_name].uri,\r\n            _documents[_name].docHash,\r\n            _documents[_name].lastModified\r\n        );\r\n    }\r\n\r\n    /**\r\n     * @notice Used to retrieve a full list of documents attached to the smart contract.\r\n     * @return bytes32 List of all documents names present in the contract.\r\n     */\r\n    function getAllDocuments() external view returns (bytes32[] memory) {\r\n        return _docNames;\r\n    }\r\n   \r\n\r\n\r\n /****************************************** Transfers *******************************************/\r\n\r\n\r\n\r\n function transferWithData(address _to,string memory symbol, uint256 _value)  override public{\r\n         require(validateData(msg.sender, _to), \"Invalid data provided\");\r\n        transfer( _to,symbol, _value);\r\n        \r\n    }\r\n\r\n    function validateData(address _from, address _to) internal view returns (bool) {\r\n        // Example of regulatory compliance data validation\r\n        // The data format is expected to include a KYC identifier \r\n        // For simplicity, let's assume the data contains the recipient's address encoded in the first 20 bytes\r\n\r\n        require(super.KYCVerified(_from), \"Sender address not KYC verified\");\r\n        require(super.KYCVerified(_to), \"Recipient address not KYC verified\");\r\n        require(super.IndianResident(_from), \"Sender is not an Indian resident\");\r\n        require(super.IndianResident(_to), \"Recipient is not an Indian resident\");\r\n\r\n         return true;\r\n    }\r\n\r\n function isIssuable() public view returns (bool) {\r\n        return _isIssuable;\r\n    }\r\n\r\n\r\n/**************************************** Token Issuance ****************************************/\r\n\r\n\r\n\r\n    function issue(address _tokenHolder,string memory symbol, uint256 _value)  override public onlyOwner {\r\n        require(validateData(msg.sender, _tokenHolder), \"Invalid data provided\");\r\n        require(isIssuable(), \"Issuance is closed\");\r\n        _mint(_tokenHolder, symbol, _value);\r\n\r\n        emit Issued(msg.sender, _tokenHolder,symbol, _value);\r\n    }\r\n\r\n\r\n\r\n/*************************************** Token Redemption ***************************************/\r\n\r\n\r\n\r\n    function redeem(address _tokenHolder,string memory symbol,uint256 _value) public {\r\n        \r\n        _burn(_tokenHolder,symbol, _value);\r\n\r\n        emit Redeemed(msg.sender, _tokenHolder,symbol, _value);\r\n    }\r\n\r\n\r\n/************************************** Transfer Validity ***************************************/\r\n\r\n\r\n /**\r\n     * @notice Transfers of securities may fail for a number of reasons. So this function will used to understand the\r\n     * cause of failure by getting the byte value. Which will be the ESC that follows the EIP 1066. ESC can be mapped \r\n     * with a reson string to understand the failure cause, table of Ethereum status code will always reside off-chain\r\n     * @param _to address The address which you want to transfer to\r\n     * @param _value uint256 the amount of tokens to be transferred\r\n     * @return bool It signifies whether the transaction will be executed or not.\r\n     * @return byte Ethereum status code (ESC)\r\n     * @return bytes32 Application specific reason code \r\n     */\r\n    function canTransfer(address _to, string memory symbol,uint256 _value) external view returns (bool, bytes1, bytes32) {\r\n        require(validateData(msg.sender, _to), \"Invalid data provided\");\r\n        \r\n        if (_balances[msg.sender][symbol] < _value)\r\n            return (false, 0x52, bytes32(0));\r\n\r\n        else if (_to == address(0))\r\n            return (false, 0x57, bytes32(0));\r\n\r\n        else if (!KindMath.checkAdd(_balances[_to][symbol], _value))\r\n            return (false, 0x50, bytes32(0));\r\n        return (true, 0x51, bytes32(0));\r\n    }\r\n\r\n\r\n}",
  "sourcePath": "D:\\SecurityTokenStandard\\grayy_backend\\ERC-1400\\contracts\\ERC1400\\ERC1400.sol",
  "compiler": {
    "name": "solc",
    "version": "0.8.21+commit.d9974bed.Emscripten.clang"
  },
  "schemaVersion": "3.4.16",
  "updatedAt": "2024-07-11T13:37:31.631Z",
  "devdoc": {
    "errors": {
      "OwnableInvalidOwner(address)": [
        {
          "details": "The owner is not a valid owner account. (eg. `address(0)`)"
        }
      ],
      "OwnableUnauthorizedAccount(address)": [
        {
          "details": "The caller account is not authorized to perform an operation."
        }
      ]
    },
    "kind": "dev",
    "methods": {
      "balanceOf(address,string)": {
        "details": "Gets the balance of the specified address.",
        "params": {
          "owner": "The address to query the balance of."
        },
        "returns": {
          "_0": "An uint256 representing the amount owned by the passed address."
        }
      },
      "canTransfer(address,string,uint256)": {
        "params": {
          "_to": "address The address which you want to transfer to",
          "_value": "uint256 the amount of tokens to be transferred"
        },
        "returns": {
          "_0": "bool It signifies whether the transaction will be executed or not.",
          "_1": "byte Ethereum status code (ESC)",
          "_2": "bytes32 Application specific reason code "
        }
      },
      "getAllDocuments()": {
        "returns": {
          "_0": "bytes32 List of all documents names present in the contract."
        }
      },
      "getDocument(bytes32)": {
        "params": {
          "_name": "Name of the document"
        },
        "returns": {
          "_0": "string The URI associated with the document.",
          "_1": "bytes32 The hash (of the contents) of the document.",
          "_2": "uint256 the timestamp at which the document was last modified."
        }
      },
      "owner()": {
        "details": "Returns the address of the current owner."
      },
      "removeDocument(bytes32)": {
        "details": "Can only be executed by the owner of the contract.",
        "params": {
          "_name": "Name of the document. It should be unique always"
        }
      },
      "renounceOwnership()": {
        "details": "Leaves the contract without owner. It will not be possible to call `onlyOwner` functions. Can only be called by the current owner. NOTE: Renouncing ownership will leave the contract without an owner, thereby disabling any functionality that is only available to the owner."
      },
      "setDocument(bytes32,string,bytes32)": {
        "details": "Can only be executed by the owner of the contract.",
        "params": {
          "_documentHash": "hash (of the contents) of the document.",
          "_name": "Name of the document. It should be unique always",
          "_uri": "Off-chain uri of the document from where it is accessible to investors/advisors to read."
        }
      },
      "totalSupply(string)": {
        "details": "Total number of tokens in existence"
      },
      "transferOwnership(address)": {
        "details": "Transfers ownership of the contract to a new account (`newOwner`). Can only be called by the current owner."
      }
    },
    "version": 1
  },
  "userdoc": {
    "kind": "user",
    "methods": {
      "canTransfer(address,string,uint256)": {
        "notice": "Transfers of securities may fail for a number of reasons. So this function will used to understand the cause of failure by getting the byte value. Which will be the ESC that follows the EIP 1066. ESC can be mapped  with a reson string to understand the failure cause, table of Ethereum status code will always reside off-chain"
      },
      "constructor": {
        "notice": "Constructor"
      },
      "getAllDocuments()": {
        "notice": "Used to retrieve a full list of documents attached to the smart contract."
      },
      "getDocument(bytes32)": {
        "notice": "Used to return the details of a document with a known name (`bytes32`)."
      },
      "removeDocument(bytes32)": {
        "notice": "Used to remove an existing document from the contract by giving the name of the document."
      },
      "setDocument(bytes32,string,bytes32)": {
        "notice": "Used to attach a new document to the contract, or update the URI or hash of an existing attached document"
      }
    },
    "version": 1
  }
}