{
  "contractName": "IPFShashStorage",
  "abi": [
    {
      "anonymous": false,
      "inputs": [
        {
          "indexed": true,
          "internalType": "address",
          "name": "user",
          "type": "address"
        },
        {
          "indexed": false,
          "internalType": "string",
          "name": "fileName",
          "type": "string"
        },
        {
          "indexed": false,
          "internalType": "string",
          "name": "ipfsHash",
          "type": "string"
        }
      ],
      "name": "FileUploaded",
      "type": "event"
    },
    {
      "inputs": [
        {
          "internalType": "string",
          "name": "fileName",
          "type": "string"
        },
        {
          "internalType": "string",
          "name": "ipfsHash",
          "type": "string"
        }
      ],
      "name": "upload",
      "outputs": [],
      "stateMutability": "nonpayable",
      "type": "function"
    },
    {
      "inputs": [
        {
          "internalType": "string",
          "name": "fileName",
          "type": "string"
        }
      ],
      "name": "getIPFSHash",
      "outputs": [
        {
          "internalType": "string",
          "name": "",
          "type": "string"
        }
      ],
      "stateMutability": "view",
      "type": "function"
    },
    {
      "inputs": [
        {
          "internalType": "string",
          "name": "fileName",
          "type": "string"
        }
      ],
      "name": "isFileStored",
      "outputs": [
        {
          "internalType": "bool",
          "name": "",
          "type": "bool"
        }
      ],
      "stateMutability": "view",
      "type": "function"
    },
    {
      "inputs": [
        {
          "internalType": "address",
          "name": "user",
          "type": "address"
        },
        {
          "internalType": "string",
          "name": "fileName",
          "type": "string"
        }
      ],
      "name": "getIPFSHashForUser",
      "outputs": [
        {
          "internalType": "string",
          "name": "",
          "type": "string"
        }
      ],
      "stateMutability": "view",
      "type": "function"
    },
    {
      "inputs": [
        {
          "internalType": "address",
          "name": "user",
          "type": "address"
        },
        {
          "internalType": "string",
          "name": "fileName",
          "type": "string"
        }
      ],
      "name": "isFileStoredForUser",
      "outputs": [
        {
          "internalType": "bool",
          "name": "",
          "type": "bool"
        }
      ],
      "stateMutability": "view",
      "type": "function"
    }
  ],
  "bytecode": "0x608060405234801561000f575f80fd5b50610ec28061001d5f395ff3fe608060405234801561000f575f80fd5b5060043610610055575f3560e01c8063202e4936146100595780634a5f66c11461007557806398b4610e146100a5578063af3eed72146100d5578063e0956ad014610105575b5f80fd5b610073600480360381019061006e9190610827565b610135565b005b61008f600480360381019061008a919061089d565b6102cc565b60405161009c919061095e565b60405180910390f35b6100bf60048036038101906100ba91906109d8565b610460565b6040516100cc9190610a4c565b60405180910390f35b6100ef60048036038101906100ea91906109d8565b6104d3565b6040516100fc919061095e565b60405180910390f35b61011f600480360381019061011a919061089d565b610668565b60405161012c9190610a4c565b60405180910390f35b5f805f3373ffffffffffffffffffffffffffffffffffffffff1673ffffffffffffffffffffffffffffffffffffffff1681526020019081526020015f20836040516101809190610a9f565b9081526020016040518091039020600101805461019c90610ae2565b9050146101de576040517f08c379a00000000000000000000000000000000000000000000000000000000081526004016101d590610b5c565b60405180910390fd5b6040518060400160405280838152602001828152505f803373ffffffffffffffffffffffffffffffffffffffff1673ffffffffffffffffffffffffffffffffffffffff1681526020019081526020015f208360405161023d9190610a9f565b90815260200160405180910390205f820151815f01908161025e9190610d20565b5060208201518160010190816102749190610d20565b509050503373ffffffffffffffffffffffffffffffffffffffff167f2f82310531f67ec4eae39b4f0d4e2ea9a5e6da4bb8f084adb414ec441b761c5d83836040516102c0929190610def565b60405180910390a25050565b60605f805f3373ffffffffffffffffffffffffffffffffffffffff1673ffffffffffffffffffffffffffffffffffffffff1681526020019081526020015f20836040516103199190610a9f565b9081526020016040518091039020600101805461033590610ae2565b905011610377576040517f08c379a000000000000000000000000000000000000000000000000000000000815260040161036e90610e6e565b60405180910390fd5b5f803373ffffffffffffffffffffffffffffffffffffffff1673ffffffffffffffffffffffffffffffffffffffff1681526020019081526020015f20826040516103c19190610a9f565b908152602001604051809103902060010180546103dd90610ae2565b80601f016020809104026020016040519081016040528092919081815260200182805461040990610ae2565b80156104545780601f1061042b57610100808354040283529160200191610454565b820191905f5260205f20905b81548152906001019060200180831161043757829003601f168201915b50505050509050919050565b5f805f808573ffffffffffffffffffffffffffffffffffffffff1673ffffffffffffffffffffffffffffffffffffffff1681526020019081526020015f20836040516104ac9190610a9f565b908152602001604051809103902060010180546104c890610ae2565b905011905092915050565b60605f805f8573ffffffffffffffffffffffffffffffffffffffff1673ffffffffffffffffffffffffffffffffffffffff1681526020019081526020015f20836040516105209190610a9f565b9081526020016040518091039020600101805461053c90610ae2565b90501161057e576040517f08c379a000000000000000000000000000000000000000000000000000000000815260040161057590610e6e565b60405180910390fd5b5f808473ffffffffffffffffffffffffffffffffffffffff1673ffffffffffffffffffffffffffffffffffffffff1681526020019081526020015f20826040516105c89190610a9f565b908152602001604051809103902060010180546105e490610ae2565b80601f016020809104026020016040519081016040528092919081815260200182805461061090610ae2565b801561065b5780601f106106325761010080835404028352916020019161065b565b820191905f5260205f20905b81548152906001019060200180831161063e57829003601f168201915b5050505050905092915050565b5f805f803373ffffffffffffffffffffffffffffffffffffffff1673ffffffffffffffffffffffffffffffffffffffff1681526020019081526020015f20836040516106b49190610a9f565b908152602001604051809103902060010180546106d090610ae2565b9050119050919050565b5f604051905090565b5f80fd5b5f80fd5b5f80fd5b5f80fd5b5f601f19601f8301169050919050565b7f4e487b71000000000000000000000000000000000000000000000000000000005f52604160045260245ffd5b610739826106f3565b810181811067ffffffffffffffff8211171561075857610757610703565b5b80604052505050565b5f61076a6106da565b90506107768282610730565b919050565b5f67ffffffffffffffff82111561079557610794610703565b5b61079e826106f3565b9050602081019050919050565b828183375f83830152505050565b5f6107cb6107c68461077b565b610761565b9050828152602081018484840111156107e7576107e66106ef565b5b6107f28482856107ab565b509392505050565b5f82601f83011261080e5761080d6106eb565b5b813561081e8482602086016107b9565b91505092915050565b5f806040838503121561083d5761083c6106e3565b5b5f83013567ffffffffffffffff81111561085a576108596106e7565b5b610866858286016107fa565b925050602083013567ffffffffffffffff811115610887576108866106e7565b5b610893858286016107fa565b9150509250929050565b5f602082840312156108b2576108b16106e3565b5b5f82013567ffffffffffffffff8111156108cf576108ce6106e7565b5b6108db848285016107fa565b91505092915050565b5f81519050919050565b5f82825260208201905092915050565b5f5b8381101561091b578082015181840152602081019050610900565b5f8484015250505050565b5f610930826108e4565b61093a81856108ee565b935061094a8185602086016108fe565b610953816106f3565b840191505092915050565b5f6020820190508181035f8301526109768184610926565b905092915050565b5f73ffffffffffffffffffffffffffffffffffffffff82169050919050565b5f6109a78261097e565b9050919050565b6109b78161099d565b81146109c1575f80fd5b50565b5f813590506109d2816109ae565b92915050565b5f80604083850312156109ee576109ed6106e3565b5b5f6109fb858286016109c4565b925050602083013567ffffffffffffffff811115610a1c57610a1b6106e7565b5b610a28858286016107fa565b9150509250929050565b5f8115159050919050565b610a4681610a32565b82525050565b5f602082019050610a5f5f830184610a3d565b92915050565b5f81905092915050565b5f610a79826108e4565b610a838185610a65565b9350610a938185602086016108fe565b80840191505092915050565b5f610aaa8284610a6f565b915081905092915050565b7f4e487b71000000000000000000000000000000000000000000000000000000005f52602260045260245ffd5b5f6002820490506001821680610af957607f821691505b602082108103610b0c57610b0b610ab5565b5b50919050565b7f46696c6520616c726561647920657869737473000000000000000000000000005f82015250565b5f610b466013836108ee565b9150610b5182610b12565b602082019050919050565b5f6020820190508181035f830152610b7381610b3a565b9050919050565b5f819050815f5260205f209050919050565b5f6020601f8301049050919050565b5f82821b905092915050565b5f60088302610bd67fffffffffffffffffffffffffffffffffffffffffffffffffffffffffffffffff82610b9b565b610be08683610b9b565b95508019841693508086168417925050509392505050565b5f819050919050565b5f819050919050565b5f610c24610c1f610c1a84610bf8565b610c01565b610bf8565b9050919050565b5f819050919050565b610c3d83610c0a565b610c51610c4982610c2b565b848454610ba7565b825550505050565b5f90565b610c65610c59565b610c70818484610c34565b505050565b5b81811015610c9357610c885f82610c5d565b600181019050610c76565b5050565b601f821115610cd857610ca981610b7a565b610cb284610b8c565b81016020851015610cc1578190505b610cd5610ccd85610b8c565b830182610c75565b50505b505050565b5f82821c905092915050565b5f610cf85f1984600802610cdd565b1980831691505092915050565b5f610d108383610ce9565b9150826002028217905092915050565b610d29826108e4565b67ffffffffffffffff811115610d4257610d41610703565b5b610d4c8254610ae2565b610d57828285610c97565b5f60209050601f831160018114610d88575f8415610d76578287015190505b610d808582610d05565b865550610de7565b601f198416610d9686610b7a565b5f5b82811015610dbd57848901518255600182019150602085019450602081019050610d98565b86831015610dda5784890151610dd6601f891682610ce9565b8355505b6001600288020188555050505b505050505050565b5f6040820190508181035f830152610e078185610926565b90508181036020830152610e1b8184610926565b90509392505050565b7f46696c65206e6f7420666f756e640000000000000000000000000000000000005f82015250565b5f610e58600e836108ee565b9150610e6382610e24565b602082019050919050565b5f6020820190508181035f830152610e8581610e4c565b905091905056fea264697066735822122048a6d0cc71242fe6b1b1910b0790fed2cfe01d77eba04d6d2b9adb19c90356be64736f6c63430008150033",
  "immutableReferences": {},
  "source": "\r\n\r\n// SPDX-License-Identifier: MIT\r\npragma solidity ^0.8.0;\r\n\r\n\r\n\r\n/**************************************** IPFShashStorage contract *******************************************/\r\n\r\n\r\ncontract IPFShashStorage {\r\n\r\n    struct File {\r\n        string fileName;\r\n        string ipfsHash;\r\n    }\r\n\r\n    // Mapping from user address to a mapping of file name to File struct\r\n    mapping(address => mapping(string => File)) private userFiles;\r\n\r\n\r\n    // Event emitted when a file is uploaded\r\n    event FileUploaded(address indexed user, string fileName, string ipfsHash);\r\n\r\n    // Function to upload a file\r\n    function upload(string memory fileName, string memory ipfsHash) public {\r\n        require(bytes(userFiles[msg.sender][fileName].ipfsHash).length == 0, \"File already exists\");\r\n        userFiles[msg.sender][fileName] = File(fileName, ipfsHash);\r\n        emit FileUploaded(msg.sender, fileName, ipfsHash);\r\n    }\r\n\r\n    // Function to get the IPFS hash of a file for the caller\r\n    function getIPFSHash(string memory fileName) public view returns (string memory) {\r\n        require(bytes(userFiles[msg.sender][fileName].ipfsHash).length > 0, \"File not found\");\r\n        return userFiles[msg.sender][fileName].ipfsHash;\r\n    }\r\n\r\n    // Function to check if a file is stored for the caller\r\n    function isFileStored(string memory fileName) public view returns (bool) {\r\n        return bytes(userFiles[msg.sender][fileName].ipfsHash).length > 0;\r\n    }\r\n\r\n    // Function to get the IPFS hash of a file for a specific user\r\n    function getIPFSHashForUser(address user, string memory fileName) public view returns (string memory) {\r\n        require(bytes(userFiles[user][fileName].ipfsHash).length > 0, \"File not found\");\r\n        return userFiles[user][fileName].ipfsHash;\r\n    }\r\n\r\n    // Function to check if a file is stored for a specific user\r\n    function isFileStoredForUser(address user, string memory fileName) public view returns (bool) {\r\n        return bytes(userFiles[user][fileName].ipfsHash).length > 0;\r\n    }\r\n\r\n}\r\n",
  "sourcePath": "D:\\SecurityTokenStandard\\grayy_backend\\ERC-1400\\contracts\\ERC1400\\IPFShashStorage.sol",
  "compiler": {
    "name": "solc",
    "version": "0.8.21+commit.d9974bed.Emscripten.clang"
  },
  "schemaVersion": "3.4.16",
  "updatedAt": "2024-07-11T13:37:31.664Z",
  "devdoc": {
    "kind": "dev",
    "methods": {},
    "version": 1
  },
  "userdoc": {
    "kind": "user",
    "methods": {},
    "version": 1
  }
}