{
  "contractName": "KYC",
  "abi": [
    {
      "inputs": [
        {
          "internalType": "address",
          "name": "initialOwner",
          "type": "address"
        }
      ],
      "stateMutability": "nonpayable",
      "type": "constructor"
    },
    {
      "inputs": [
        {
          "internalType": "address",
          "name": "owner",
          "type": "address"
        }
      ],
      "name": "OwnableInvalidOwner",
      "type": "error"
    },
    {
      "inputs": [
        {
          "internalType": "address",
          "name": "account",
          "type": "address"
        }
      ],
      "name": "OwnableUnauthorizedAccount",
      "type": "error"
    },
    {
      "anonymous": false,
      "inputs": [
        {
          "indexed": true,
          "internalType": "address",
          "name": "previousOwner",
          "type": "address"
        },
        {
          "indexed": true,
          "internalType": "address",
          "name": "newOwner",
          "type": "address"
        }
      ],
      "name": "OwnershipTransferred",
      "type": "event"
    },
    {
      "inputs": [
        {
          "internalType": "address",
          "name": "",
          "type": "address"
        }
      ],
      "name": "aadharNumber",
      "outputs": [
        {
          "internalType": "string",
          "name": "",
          "type": "string"
        }
      ],
      "stateMutability": "view",
      "type": "function"
    },
    {
      "inputs": [
        {
          "internalType": "address",
          "name": "",
          "type": "address"
        }
      ],
      "name": "isDocumentVerified",
      "outputs": [
        {
          "internalType": "bool",
          "name": "",
          "type": "bool"
        }
      ],
      "stateMutability": "view",
      "type": "function"
    },
    {
      "inputs": [
        {
          "internalType": "address",
          "name": "",
          "type": "address"
        }
      ],
      "name": "isIndianResident",
      "outputs": [
        {
          "internalType": "bool",
          "name": "",
          "type": "bool"
        }
      ],
      "stateMutability": "view",
      "type": "function"
    },
    {
      "inputs": [
        {
          "internalType": "address",
          "name": "",
          "type": "address"
        }
      ],
      "name": "isKYCCompleted",
      "outputs": [
        {
          "internalType": "bool",
          "name": "",
          "type": "bool"
        }
      ],
      "stateMutability": "view",
      "type": "function"
    },
    {
      "inputs": [],
      "name": "owner",
      "outputs": [
        {
          "internalType": "address",
          "name": "",
          "type": "address"
        }
      ],
      "stateMutability": "view",
      "type": "function"
    },
    {
      "inputs": [],
      "name": "renounceOwnership",
      "outputs": [],
      "stateMutability": "nonpayable",
      "type": "function"
    },
    {
      "inputs": [
        {
          "internalType": "address",
          "name": "newOwner",
          "type": "address"
        }
      ],
      "name": "transferOwnership",
      "outputs": [],
      "stateMutability": "nonpayable",
      "type": "function"
    },
    {
      "inputs": [
        {
          "internalType": "address",
          "name": "_user",
          "type": "address"
        },
        {
          "internalType": "string",
          "name": "_aadharNumber",
          "type": "string"
        }
      ],
      "name": "completeKYC",
      "outputs": [],
      "stateMutability": "nonpayable",
      "type": "function"
    },
    {
      "inputs": [
        {
          "internalType": "address",
          "name": "_user",
          "type": "address"
        }
      ],
      "name": "revokeKYC",
      "outputs": [],
      "stateMutability": "nonpayable",
      "type": "function"
    },
    {
      "inputs": [
        {
          "internalType": "address",
          "name": "_addr",
          "type": "address"
        }
      ],
      "name": "KYCVerified",
      "outputs": [
        {
          "internalType": "bool",
          "name": "",
          "type": "bool"
        }
      ],
      "stateMutability": "view",
      "type": "function"
    },
    {
      "inputs": [
        {
          "internalType": "address",
          "name": "_addr",
          "type": "address"
        }
      ],
      "name": "IndianResident",
      "outputs": [
        {
          "internalType": "bool",
          "name": "",
          "type": "bool"
        }
      ],
      "stateMutability": "view",
      "type": "function"
    },
    {
      "inputs": [
        {
          "internalType": "address",
          "name": "_addr",
          "type": "address"
        }
      ],
      "name": "setDocumentVerified",
      "outputs": [],
      "stateMutability": "nonpayable",
      "type": "function"
    },
    {
      "inputs": [
        {
          "internalType": "address",
          "name": "_addr",
          "type": "address"
        }
      ],
      "name": "setDocumentRevoked",
      "outputs": [],
      "stateMutability": "nonpayable",
      "type": "function"
    },
    {
      "inputs": [
        {
          "internalType": "address",
          "name": "_addr",
          "type": "address"
        }
      ],
      "name": "DocumentVerified",
      "outputs": [
        {
          "internalType": "bool",
          "name": "",
          "type": "bool"
        }
      ],
      "stateMutability": "view",
      "type": "function"
    }
  ],
  "bytecode": "0x608060405234801562000010575f80fd5b50604051620012d8380380620012d88339818101604052810190620000369190620001e9565b805f73ffffffffffffffffffffffffffffffffffffffff168173ffffffffffffffffffffffffffffffffffffffff1603620000aa575f6040517f1e4fbdf7000000000000000000000000000000000000000000000000000000008152600401620000a191906200022a565b60405180910390fd5b620000bb81620000c360201b60201c565b505062000245565b5f805f9054906101000a900473ffffffffffffffffffffffffffffffffffffffff169050815f806101000a81548173ffffffffffffffffffffffffffffffffffffffff021916908373ffffffffffffffffffffffffffffffffffffffff1602179055508173ffffffffffffffffffffffffffffffffffffffff168173ffffffffffffffffffffffffffffffffffffffff167f8be0079c531659141344cd1fd0a4f28419497f9722a3daafe3b4186f6b6457e060405160405180910390a35050565b5f80fd5b5f73ffffffffffffffffffffffffffffffffffffffff82169050919050565b5f620001b38262000188565b9050919050565b620001c581620001a7565b8114620001d0575f80fd5b50565b5f81519050620001e381620001ba565b92915050565b5f6020828403121562000201576200020062000184565b5b5f6200021084828501620001d3565b91505092915050565b6200022481620001a7565b82525050565b5f6020820190506200023f5f83018462000219565b92915050565b61108580620002535f395ff3fe608060405234801561000f575f80fd5b50600436106100e8575f3560e01c80638da5cb5b1161008a578063cec9bfd911610064578063cec9bfd914610244578063eba1ed3b14610274578063f2fde38b146102a4578063fb2ad1c1146102c0576100e8565b80638da5cb5b146101da578063adb2f71f146101f8578063c14a890d14610214576100e8565b8063486862e9116100c6578063486862e91461015457806365c84ee814610184578063715018a6146101b45780637f1c83a7146101be576100e8565b80631082dffe146100ec5780631b33779a1461011c57806339ba645b14610138575b5f80fd5b61010660048036038101906101019190610a5f565b6102f0565b6040516101139190610aa4565b60405180910390f35b61013660048036038101906101319190610bf9565b61030d565b005b610152600480360381019061014d9190610a5f565b610451565b005b61016e60048036038101906101699190610a5f565b61055d565b60405161017b9190610aa4565b60405180910390f35b61019e60048036038101906101999190610a5f565b6105af565b6040516101ab9190610aa4565b60405180910390f35b6101bc610601565b005b6101d860048036038101906101d39190610a5f565b610614565b005b6101e2610674565b6040516101ef9190610c62565b60405180910390f35b610212600480360381019061020d9190610a5f565b61069b565b005b61022e60048036038101906102299190610a5f565b6106fa565b60405161023b9190610aa4565b60405180910390f35b61025e60048036038101906102599190610a5f565b61074c565b60405161026b9190610aa4565b60405180910390f35b61028e60048036038101906102899190610a5f565b610769565b60405161029b9190610aa4565b60405180910390f35b6102be60048036038101906102b99190610a5f565b610786565b005b6102da60048036038101906102d59190610a5f565b61080a565b6040516102e79190610cf5565b60405180910390f35b6001602052805f5260405f205f915054906101000a900460ff1681565b6103156108a5565b600c815114610359576040517f08c379a000000000000000000000000000000000000000000000000000000000815260040161035090610d5f565b60405180910390fd5b6001805f8473ffffffffffffffffffffffffffffffffffffffff1673ffffffffffffffffffffffffffffffffffffffff1681526020019081526020015f205f6101000a81548160ff021916908315150217905550600160025f8473ffffffffffffffffffffffffffffffffffffffff1673ffffffffffffffffffffffffffffffffffffffff1681526020019081526020015f205f6101000a81548160ff0219169083151502179055508060035f8473ffffffffffffffffffffffffffffffffffffffff1673ffffffffffffffffffffffffffffffffffffffff1681526020019081526020015f20908161044c9190610f80565b505050565b6104596108a5565b5f60015f8373ffffffffffffffffffffffffffffffffffffffff1673ffffffffffffffffffffffffffffffffffffffff1681526020019081526020015f205f6101000a81548160ff0219169083151502179055505f60025f8373ffffffffffffffffffffffffffffffffffffffff1673ffffffffffffffffffffffffffffffffffffffff1681526020019081526020015f205f6101000a81548160ff02191690831515021790555060405180602001604052805f81525060035f8373ffffffffffffffffffffffffffffffffffffffff1673ffffffffffffffffffffffffffffffffffffffff1681526020019081526020015f2090816105599190610f80565b5050565b5f60045f8373ffffffffffffffffffffffffffffffffffffffff1673ffffffffffffffffffffffffffffffffffffffff1681526020019081526020015f205f9054906101000a900460ff169050919050565b5f60015f8373ffffffffffffffffffffffffffffffffffffffff1673ffffffffffffffffffffffffffffffffffffffff1681526020019081526020015f205f9054906101000a900460ff169050919050565b6106096108a5565b6106125f61092c565b565b61061c6108a5565b600160045f8373ffffffffffffffffffffffffffffffffffffffff1673ffffffffffffffffffffffffffffffffffffffff1681526020019081526020015f205f6101000a81548160ff02191690831515021790555050565b5f805f9054906101000a900473ffffffffffffffffffffffffffffffffffffffff16905090565b6106a36108a5565b5f60045f8373ffffffffffffffffffffffffffffffffffffffff1673ffffffffffffffffffffffffffffffffffffffff1681526020019081526020015f205f6101000a81548160ff02191690831515021790555050565b5f60025f8373ffffffffffffffffffffffffffffffffffffffff1673ffffffffffffffffffffffffffffffffffffffff1681526020019081526020015f205f9054906101000a900460ff169050919050565b6004602052805f5260405f205f915054906101000a900460ff1681565b6002602052805f5260405f205f915054906101000a900460ff1681565b61078e6108a5565b5f73ffffffffffffffffffffffffffffffffffffffff168173ffffffffffffffffffffffffffffffffffffffff16036107fe575f6040517f1e4fbdf70000000000000000000000000000000000000000000000000000000081526004016107f59190610c62565b60405180910390fd5b6108078161092c565b50565b6003602052805f5260405f205f91509050805461082690610daa565b80601f016020809104026020016040519081016040528092919081815260200182805461085290610daa565b801561089d5780601f106108745761010080835404028352916020019161089d565b820191905f5260205f20905b81548152906001019060200180831161088057829003601f168201915b505050505081565b6108ad6109ed565b73ffffffffffffffffffffffffffffffffffffffff166108cb610674565b73ffffffffffffffffffffffffffffffffffffffff161461092a576108ee6109ed565b6040517f118cdaa70000000000000000000000000000000000000000000000000000000081526004016109219190610c62565b60405180910390fd5b565b5f805f9054906101000a900473ffffffffffffffffffffffffffffffffffffffff169050815f806101000a81548173ffffffffffffffffffffffffffffffffffffffff021916908373ffffffffffffffffffffffffffffffffffffffff1602179055508173ffffffffffffffffffffffffffffffffffffffff168173ffffffffffffffffffffffffffffffffffffffff167f8be0079c531659141344cd1fd0a4f28419497f9722a3daafe3b4186f6b6457e060405160405180910390a35050565b5f33905090565b5f604051905090565b5f80fd5b5f80fd5b5f73ffffffffffffffffffffffffffffffffffffffff82169050919050565b5f610a2e82610a05565b9050919050565b610a3e81610a24565b8114610a48575f80fd5b50565b5f81359050610a5981610a35565b92915050565b5f60208284031215610a7457610a736109fd565b5b5f610a8184828501610a4b565b91505092915050565b5f8115159050919050565b610a9e81610a8a565b82525050565b5f602082019050610ab75f830184610a95565b92915050565b5f80fd5b5f80fd5b5f601f19601f8301169050919050565b7f4e487b71000000000000000000000000000000000000000000000000000000005f52604160045260245ffd5b610b0b82610ac5565b810181811067ffffffffffffffff82111715610b2a57610b29610ad5565b5b80604052505050565b5f610b3c6109f4565b9050610b488282610b02565b919050565b5f67ffffffffffffffff821115610b6757610b66610ad5565b5b610b7082610ac5565b9050602081019050919050565b828183375f83830152505050565b5f610b9d610b9884610b4d565b610b33565b905082815260208101848484011115610bb957610bb8610ac1565b5b610bc4848285610b7d565b509392505050565b5f82601f830112610be057610bdf610abd565b5b8135610bf0848260208601610b8b565b91505092915050565b5f8060408385031215610c0f57610c0e6109fd565b5b5f610c1c85828601610a4b565b925050602083013567ffffffffffffffff811115610c3d57610c3c610a01565b5b610c4985828601610bcc565b9150509250929050565b610c5c81610a24565b82525050565b5f602082019050610c755f830184610c53565b92915050565b5f81519050919050565b5f82825260208201905092915050565b5f5b83811015610cb2578082015181840152602081019050610c97565b5f8484015250505050565b5f610cc782610c7b565b610cd18185610c85565b9350610ce1818560208601610c95565b610cea81610ac5565b840191505092915050565b5f6020820190508181035f830152610d0d8184610cbd565b905092915050565b7f496e76616c696420416164686172206e756d62657200000000000000000000005f82015250565b5f610d49601583610c85565b9150610d5482610d15565b602082019050919050565b5f6020820190508181035f830152610d7681610d3d565b9050919050565b7f4e487b71000000000000000000000000000000000000000000000000000000005f52602260045260245ffd5b5f6002820490506001821680610dc157607f821691505b602082108103610dd457610dd3610d7d565b5b50919050565b5f819050815f5260205f209050919050565b5f6020601f8301049050919050565b5f82821b905092915050565b5f60088302610e367fffffffffffffffffffffffffffffffffffffffffffffffffffffffffffffffff82610dfb565b610e408683610dfb565b95508019841693508086168417925050509392505050565b5f819050919050565b5f819050919050565b5f610e84610e7f610e7a84610e58565b610e61565b610e58565b9050919050565b5f819050919050565b610e9d83610e6a565b610eb1610ea982610e8b565b848454610e07565b825550505050565b5f90565b610ec5610eb9565b610ed0818484610e94565b505050565b5b81811015610ef357610ee85f82610ebd565b600181019050610ed6565b5050565b601f821115610f3857610f0981610dda565b610f1284610dec565b81016020851015610f21578190505b610f35610f2d85610dec565b830182610ed5565b50505b505050565b5f82821c905092915050565b5f610f585f1984600802610f3d565b1980831691505092915050565b5f610f708383610f49565b9150826002028217905092915050565b610f8982610c7b565b67ffffffffffffffff811115610fa257610fa1610ad5565b5b610fac8254610daa565b610fb7828285610ef7565b5f60209050601f831160018114610fe8575f8415610fd6578287015190505b610fe08582610f65565b865550611047565b601f198416610ff686610dda565b5f5b8281101561101d57848901518255600182019150602085019450602081019050610ff8565b8683101561103a5784890151611036601f891682610f49565b8355505b6001600288020188555050505b50505050505056fea2646970667358221220fc41dcd059730dc564bf1262bb78e63a7868b66578428ec1298b908beddd859064736f6c63430008150033",
  "immutableReferences": {},
  "source": "\r\n\r\n// SPDX-License-Identifier: MIT\r\npragma solidity ^0.8.0;\r\n\r\nimport \"@openzeppelin/contracts/access/Ownable.sol\";\r\n\r\n/**************************************** KYC contract *******************************************/\r\n\r\ncontract KYC is Ownable{\r\n\r\n    mapping(address => bool) public isKYCCompleted;\r\n    mapping(address => bool) public isIndianResident;\r\n    mapping(address => string) public aadharNumber;\r\n    mapping(address => bool) public isDocumentVerified;\r\n   \r\nconstructor(address initialOwner) Ownable(initialOwner) {\r\n       \r\n    }\r\n\r\n    \r\n    function completeKYC(address _user, string memory _aadharNumber) public onlyOwner {\r\n        require(bytes(_aadharNumber).length == 12, \"Invalid Aadhar number\");\r\n        // Mock Aadhar verification process\r\n        isKYCCompleted[_user] = true;\r\n        isIndianResident[_user] = true; // Assume that Aadhar verification implies Indian residency\r\n        aadharNumber[_user] = _aadharNumber;\r\n    }\r\n\r\n    function revokeKYC(address _user) public onlyOwner {\r\n        isKYCCompleted[_user] = false;\r\n        isIndianResident[_user] = false;\r\n        aadharNumber[_user] = \"\";\r\n    }\r\n\t\r\n    function KYCVerified(address _addr) public view returns(bool) {\r\n        return isKYCCompleted[_addr];\r\n    }\r\n\r\n    function IndianResident(address _addr) public view returns(bool) {\r\n        return isIndianResident[_addr];\r\n    }\r\n\r\n    function setDocumentVerified(address _addr) public onlyOwner {\r\n        isDocumentVerified[_addr] = true;\r\n    }\r\n\r\n    function setDocumentRevoked(address _addr) public onlyOwner {\r\n        isDocumentVerified[_addr] = false;\r\n    }\r\n   \r\n   function DocumentVerified(address _addr) public view returns(bool) {\r\n        return isDocumentVerified[_addr];\r\n    }\r\n    \r\n\t}\r\n\r\n",
  "sourcePath": "D:\\SecurityTokenStandard\\grayy_backend\\ERC-1400\\contracts\\ERC1400\\KYC.sol",
  "compiler": {
    "name": "solc",
    "version": "0.8.21+commit.d9974bed.Emscripten.clang"
  },
  "schemaVersion": "3.4.16",
  "updatedAt": "2024-07-11T13:37:31.681Z",
  "devdoc": {
    "errors": {
      "OwnableInvalidOwner(address)": [
        {
          "details": "The owner is not a valid owner account. (eg. `address(0)`)"
        }
      ],
      "OwnableUnauthorizedAccount(address)": [
        {
          "details": "The caller account is not authorized to perform an operation."
        }
      ]
    },
    "kind": "dev",
    "methods": {
      "owner()": {
        "details": "Returns the address of the current owner."
      },
      "renounceOwnership()": {
        "details": "Leaves the contract without owner. It will not be possible to call `onlyOwner` functions. Can only be called by the current owner. NOTE: Renouncing ownership will leave the contract without an owner, thereby disabling any functionality that is only available to the owner."
      },
      "transferOwnership(address)": {
        "details": "Transfers ownership of the contract to a new account (`newOwner`). Can only be called by the current owner."
      }
    },
    "version": 1
  },
  "userdoc": {
    "kind": "user",
    "methods": {},
    "version": 1
  }
}