{
  "contractName": "STO",
  "abi": [
    {
      "inputs": [
        {
          "internalType": "address",
          "name": "_adminAddress",
          "type": "address"
        }
      ],
      "stateMutability": "nonpayable",
      "type": "constructor"
    },
    {
      "inputs": [
        {
          "internalType": "address",
          "name": "owner",
          "type": "address"
        }
      ],
      "name": "OwnableInvalidOwner",
      "type": "error"
    },
    {
      "inputs": [
        {
          "internalType": "address",
          "name": "account",
          "type": "address"
        }
      ],
      "name": "OwnableUnauthorizedAccount",
      "type": "error"
    },
    {
      "anonymous": false,
      "inputs": [
        {
          "indexed": true,
          "internalType": "bytes32",
          "name": "_name",
          "type": "bytes32"
        },
        {
          "indexed": false,
          "internalType": "string",
          "name": "_uri",
          "type": "string"
        },
        {
          "indexed": false,
          "internalType": "bytes32",
          "name": "_documentHash",
          "type": "bytes32"
        }
      ],
      "name": "DocumentRemoved",
      "type": "event"
    },
    {
      "anonymous": false,
      "inputs": [
        {
          "indexed": true,
          "internalType": "bytes32",
          "name": "_name",
          "type": "bytes32"
        },
        {
          "indexed": false,
          "internalType": "string",
          "name": "_uri",
          "type": "string"
        },
        {
          "indexed": false,
          "internalType": "bytes32",
          "name": "_documentHash",
          "type": "bytes32"
        }
      ],
      "name": "DocumentUpdated",
      "type": "event"
    },
    {
      "anonymous": false,
      "inputs": [
        {
          "indexed": true,
          "internalType": "address",
          "name": "user",
          "type": "address"
        },
        {
          "indexed": false,
          "internalType": "string",
          "name": "fileName",
          "type": "string"
        },
        {
          "indexed": false,
          "internalType": "string",
          "name": "ipfsHash",
          "type": "string"
        }
      ],
      "name": "FileUploaded",
      "type": "event"
    },
    {
      "anonymous": false,
      "inputs": [
        {
          "indexed": true,
          "internalType": "address",
          "name": "_operator",
          "type": "address"
        },
        {
          "indexed": true,
          "internalType": "address",
          "name": "_to",
          "type": "address"
        },
        {
          "indexed": false,
          "internalType": "string",
          "name": "symbol",
          "type": "string"
        },
        {
          "indexed": false,
          "internalType": "uint256",
          "name": "_value",
          "type": "uint256"
        }
      ],
      "name": "Issued",
      "type": "event"
    },
    {
      "anonymous": false,
      "inputs": [
        {
          "indexed": true,
          "internalType": "address",
          "name": "previousOwner",
          "type": "address"
        },
        {
          "indexed": true,
          "internalType": "address",
          "name": "newOwner",
          "type": "address"
        }
      ],
      "name": "OwnershipTransferred",
      "type": "event"
    },
    {
      "anonymous": false,
      "inputs": [
        {
          "indexed": true,
          "internalType": "address",
          "name": "_operator",
          "type": "address"
        },
        {
          "indexed": true,
          "internalType": "address",
          "name": "_from",
          "type": "address"
        },
        {
          "indexed": false,
          "internalType": "string",
          "name": "symbol",
          "type": "string"
        },
        {
          "indexed": false,
          "internalType": "uint256",
          "name": "_value",
          "type": "uint256"
        }
      ],
      "name": "Redeemed",
      "type": "event"
    },
    {
      "anonymous": false,
      "inputs": [
        {
          "indexed": true,
          "internalType": "address",
          "name": "tokenOwner",
          "type": "address"
        },
        {
          "indexed": true,
          "internalType": "string",
          "name": "symbol",
          "type": "string"
        },
        {
          "indexed": false,
          "internalType": "string",
          "name": "name",
          "type": "string"
        },
        {
          "indexed": false,
          "internalType": "uint256",
          "name": "totalSupply",
          "type": "uint256"
        },
        {
          "indexed": false,
          "internalType": "uint256",
          "name": "price",
          "type": "uint256"
        }
      ],
      "name": "TokenCreated",
      "type": "event"
    },
    {
      "anonymous": false,
      "inputs": [
        {
          "indexed": true,
          "internalType": "address",
          "name": "investor",
          "type": "address"
        },
        {
          "indexed": true,
          "internalType": "string",
          "name": "symbol",
          "type": "string"
        },
        {
          "indexed": false,
          "internalType": "uint256",
          "name": "_value",
          "type": "uint256"
        }
      ],
      "name": "TokensAllocated",
      "type": "event"
    },
    {
      "anonymous": false,
      "inputs": [
        {
          "indexed": true,
          "internalType": "address",
          "name": "_tokenHolder",
          "type": "address"
        },
        {
          "indexed": true,
          "internalType": "string",
          "name": "symbol",
          "type": "string"
        },
        {
          "indexed": false,
          "internalType": "uint256",
          "name": "_value",
          "type": "uint256"
        }
      ],
      "name": "TokensBurned",
      "type": "event"
    },
    {
      "anonymous": false,
      "inputs": [
        {
          "indexed": true,
          "internalType": "address",
          "name": "from",
          "type": "address"
        },
        {
          "indexed": true,
          "internalType": "address",
          "name": "to",
          "type": "address"
        },
        {
          "indexed": false,
          "internalType": "string",
          "name": "symbol",
          "type": "string"
        },
        {
          "indexed": false,
          "internalType": "uint256",
          "name": "value",
          "type": "uint256"
        }
      ],
      "name": "TransferWithData",
      "type": "event"
    },
    {
      "inputs": [
        {
          "internalType": "address",
          "name": "_addr",
          "type": "address"
        }
      ],
      "name": "DocumentVerified",
      "outputs": [
        {
          "internalType": "bool",
          "name": "",
          "type": "bool"
        }
      ],
      "stateMutability": "view",
      "type": "function"
    },
    {
      "inputs": [
        {
          "internalType": "address",
          "name": "_addr",
          "type": "address"
        }
      ],
      "name": "IndianResident",
      "outputs": [
        {
          "internalType": "bool",
          "name": "",
          "type": "bool"
        }
      ],
      "stateMutability": "view",
      "type": "function"
    },
    {
      "inputs": [
        {
          "internalType": "address",
          "name": "_addr",
          "type": "address"
        }
      ],
      "name": "KYCVerified",
      "outputs": [
        {
          "internalType": "bool",
          "name": "",
          "type": "bool"
        }
      ],
      "stateMutability": "view",
      "type": "function"
    },
    {
      "inputs": [
        {
          "internalType": "address",
          "name": "",
          "type": "address"
        }
      ],
      "name": "aadharNumber",
      "outputs": [
        {
          "internalType": "string",
          "name": "",
          "type": "string"
        }
      ],
      "stateMutability": "view",
      "type": "function"
    },
    {
      "inputs": [],
      "name": "adminAddress",
      "outputs": [
        {
          "internalType": "address",
          "name": "",
          "type": "address"
        }
      ],
      "stateMutability": "view",
      "type": "function"
    },
    {
      "inputs": [
        {
          "internalType": "address",
          "name": "owner",
          "type": "address"
        },
        {
          "internalType": "string",
          "name": "symbol",
          "type": "string"
        }
      ],
      "name": "balanceOf",
      "outputs": [
        {
          "internalType": "uint256",
          "name": "",
          "type": "uint256"
        }
      ],
      "stateMutability": "view",
      "type": "function"
    },
    {
      "inputs": [
        {
          "internalType": "address",
          "name": "_to",
          "type": "address"
        },
        {
          "internalType": "string",
          "name": "symbol",
          "type": "string"
        },
        {
          "internalType": "uint256",
          "name": "_value",
          "type": "uint256"
        }
      ],
      "name": "canTransfer",
      "outputs": [
        {
          "internalType": "bool",
          "name": "",
          "type": "bool"
        },
        {
          "internalType": "bytes1",
          "name": "",
          "type": "bytes1"
        },
        {
          "internalType": "bytes32",
          "name": "",
          "type": "bytes32"
        }
      ],
      "stateMutability": "view",
      "type": "function"
    },
    {
      "inputs": [
        {
          "internalType": "address",
          "name": "_user",
          "type": "address"
        },
        {
          "internalType": "string",
          "name": "_aadharNumber",
          "type": "string"
        }
      ],
      "name": "completeKYC",
      "outputs": [],
      "stateMutability": "nonpayable",
      "type": "function"
    },
    {
      "inputs": [],
      "name": "getAllDocuments",
      "outputs": [
        {
          "internalType": "bytes32[]",
          "name": "",
          "type": "bytes32[]"
        }
      ],
      "stateMutability": "view",
      "type": "function"
    },
    {
      "inputs": [
        {
          "internalType": "bytes32",
          "name": "_name",
          "type": "bytes32"
        }
      ],
      "name": "getDocument",
      "outputs": [
        {
          "internalType": "string",
          "name": "",
          "type": "string"
        },
        {
          "internalType": "bytes32",
          "name": "",
          "type": "bytes32"
        },
        {
          "internalType": "uint256",
          "name": "",
          "type": "uint256"
        }
      ],
      "stateMutability": "view",
      "type": "function"
    },
    {
      "inputs": [
        {
          "internalType": "string",
          "name": "fileName",
          "type": "string"
        }
      ],
      "name": "getIPFSHash",
      "outputs": [
        {
          "internalType": "string",
          "name": "",
          "type": "string"
        }
      ],
      "stateMutability": "view",
      "type": "function"
    },
    {
      "inputs": [
        {
          "internalType": "address",
          "name": "user",
          "type": "address"
        },
        {
          "internalType": "string",
          "name": "fileName",
          "type": "string"
        }
      ],
      "name": "getIPFSHashForUser",
      "outputs": [
        {
          "internalType": "string",
          "name": "",
          "type": "string"
        }
      ],
      "stateMutability": "view",
      "type": "function"
    },
    {
      "inputs": [
        {
          "internalType": "address",
          "name": "",
          "type": "address"
        }
      ],
      "name": "isDocumentVerified",
      "outputs": [
        {
          "internalType": "bool",
          "name": "",
          "type": "bool"
        }
      ],
      "stateMutability": "view",
      "type": "function"
    },
    {
      "inputs": [
        {
          "internalType": "string",
          "name": "fileName",
          "type": "string"
        }
      ],
      "name": "isFileStored",
      "outputs": [
        {
          "internalType": "bool",
          "name": "",
          "type": "bool"
        }
      ],
      "stateMutability": "view",
      "type": "function"
    },
    {
      "inputs": [
        {
          "internalType": "address",
          "name": "user",
          "type": "address"
        },
        {
          "internalType": "string",
          "name": "fileName",
          "type": "string"
        }
      ],
      "name": "isFileStoredForUser",
      "outputs": [
        {
          "internalType": "bool",
          "name": "",
          "type": "bool"
        }
      ],
      "stateMutability": "view",
      "type": "function"
    },
    {
      "inputs": [
        {
          "internalType": "address",
          "name": "",
          "type": "address"
        }
      ],
      "name": "isIndianResident",
      "outputs": [
        {
          "internalType": "bool",
          "name": "",
          "type": "bool"
        }
      ],
      "stateMutability": "view",
      "type": "function"
    },
    {
      "inputs": [],
      "name": "isIssuable",
      "outputs": [
        {
          "internalType": "bool",
          "name": "",
          "type": "bool"
        }
      ],
      "stateMutability": "view",
      "type": "function"
    },
    {
      "inputs": [
        {
          "internalType": "address",
          "name": "",
          "type": "address"
        }
      ],
      "name": "isKYCCompleted",
      "outputs": [
        {
          "internalType": "bool",
          "name": "",
          "type": "bool"
        }
      ],
      "stateMutability": "view",
      "type": "function"
    },
    {
      "inputs": [
        {
          "internalType": "address",
          "name": "_tokenHolder",
          "type": "address"
        },
        {
          "internalType": "string",
          "name": "symbol",
          "type": "string"
        },
        {
          "internalType": "uint256",
          "name": "_value",
          "type": "uint256"
        }
      ],
      "name": "issue",
      "outputs": [],
      "stateMutability": "nonpayable",
      "type": "function"
    },
    {
      "inputs": [],
      "name": "owner",
      "outputs": [
        {
          "internalType": "address",
          "name": "",
          "type": "address"
        }
      ],
      "stateMutability": "view",
      "type": "function"
    },
    {
      "inputs": [
        {
          "internalType": "address",
          "name": "_tokenHolder",
          "type": "address"
        },
        {
          "internalType": "string",
          "name": "symbol",
          "type": "string"
        },
        {
          "internalType": "uint256",
          "name": "_value",
          "type": "uint256"
        }
      ],
      "name": "redeem",
      "outputs": [],
      "stateMutability": "nonpayable",
      "type": "function"
    },
    {
      "inputs": [
        {
          "internalType": "bytes32",
          "name": "_name",
          "type": "bytes32"
        }
      ],
      "name": "removeDocument",
      "outputs": [],
      "stateMutability": "nonpayable",
      "type": "function"
    },
    {
      "inputs": [],
      "name": "renounceOwnership",
      "outputs": [],
      "stateMutability": "nonpayable",
      "type": "function"
    },
    {
      "inputs": [
        {
          "internalType": "address",
          "name": "_user",
          "type": "address"
        }
      ],
      "name": "revokeKYC",
      "outputs": [],
      "stateMutability": "nonpayable",
      "type": "function"
    },
    {
      "inputs": [
        {
          "internalType": "bytes32",
          "name": "_name",
          "type": "bytes32"
        },
        {
          "internalType": "string",
          "name": "_uri",
          "type": "string"
        },
        {
          "internalType": "bytes32",
          "name": "_documentHash",
          "type": "bytes32"
        }
      ],
      "name": "setDocument",
      "outputs": [],
      "stateMutability": "nonpayable",
      "type": "function"
    },
    {
      "inputs": [
        {
          "internalType": "address",
          "name": "_addr",
          "type": "address"
        }
      ],
      "name": "setDocumentRevoked",
      "outputs": [],
      "stateMutability": "nonpayable",
      "type": "function"
    },
    {
      "inputs": [
        {
          "internalType": "address",
          "name": "_addr",
          "type": "address"
        }
      ],
      "name": "setDocumentVerified",
      "outputs": [],
      "stateMutability": "nonpayable",
      "type": "function"
    },
    {
      "inputs": [],
      "name": "symbol",
      "outputs": [
        {
          "internalType": "string",
          "name": "",
          "type": "string"
        }
      ],
      "stateMutability": "view",
      "type": "function"
    },
    {
      "inputs": [
        {
          "internalType": "string",
          "name": "",
          "type": "string"
        }
      ],
      "name": "tokens",
      "outputs": [
        {
          "internalType": "address",
          "name": "tokenOwner",
          "type": "address"
        },
        {
          "internalType": "string",
          "name": "name",
          "type": "string"
        },
        {
          "internalType": "uint256",
          "name": "totalSupply",
          "type": "uint256"
        },
        {
          "internalType": "uint256",
          "name": "availableSupply",
          "type": "uint256"
        },
        {
          "internalType": "uint256",
          "name": "price",
          "type": "uint256"
        }
      ],
      "stateMutability": "view",
      "type": "function"
    },
    {
      "inputs": [
        {
          "internalType": "string",
          "name": "symbol",
          "type": "string"
        }
      ],
      "name": "totalSupply",
      "outputs": [
        {
          "internalType": "uint256",
          "name": "",
          "type": "uint256"
        }
      ],
      "stateMutability": "view",
      "type": "function"
    },
    {
      "inputs": [
        {
          "internalType": "address",
          "name": "_to",
          "type": "address"
        },
        {
          "internalType": "string",
          "name": "symbol",
          "type": "string"
        },
        {
          "internalType": "uint256",
          "name": "_value",
          "type": "uint256"
        }
      ],
      "name": "transfer",
      "outputs": [
        {
          "internalType": "bool",
          "name": "",
          "type": "bool"
        }
      ],
      "stateMutability": "nonpayable",
      "type": "function"
    },
    {
      "inputs": [
        {
          "internalType": "address",
          "name": "newOwner",
          "type": "address"
        }
      ],
      "name": "transferOwnership",
      "outputs": [],
      "stateMutability": "nonpayable",
      "type": "function"
    },
    {
      "inputs": [
        {
          "internalType": "address",
          "name": "_to",
          "type": "address"
        },
        {
          "internalType": "string",
          "name": "symbol",
          "type": "string"
        },
        {
          "internalType": "uint256",
          "name": "_value",
          "type": "uint256"
        }
      ],
      "name": "transferWithData",
      "outputs": [],
      "stateMutability": "nonpayable",
      "type": "function"
    },
    {
      "inputs": [
        {
          "internalType": "string",
          "name": "fileName",
          "type": "string"
        },
        {
          "internalType": "string",
          "name": "ipfsHash",
          "type": "string"
        }
      ],
      "name": "upload",
      "outputs": [],
      "stateMutability": "nonpayable",
      "type": "function"
    },
    {
      "inputs": [
        {
          "internalType": "address",
          "name": "_tokenOwner",
          "type": "address"
        },
        {
          "internalType": "string",
          "name": "_name",
          "type": "string"
        },
        {
          "internalType": "string",
          "name": "_symbol",
          "type": "string"
        },
        {
          "internalType": "uint256",
          "name": "_totalSupply",
          "type": "uint256"
        },
        {
          "internalType": "uint256",
          "name": "_price",
          "type": "uint256"
        }
      ],
      "name": "createToken",
      "outputs": [],
      "stateMutability": "nonpayable",
      "type": "function"
    },
    {
      "inputs": [
        {
          "internalType": "string",
          "name": "_symbol",
          "type": "string"
        }
      ],
      "name": "getTokenDetails",
      "outputs": [
        {
          "internalType": "address",
          "name": "",
          "type": "address"
        },
        {
          "internalType": "string",
          "name": "",
          "type": "string"
        },
        {
          "internalType": "uint256",
          "name": "",
          "type": "uint256"
        },
        {
          "internalType": "uint256",
          "name": "",
          "type": "uint256"
        },
        {
          "internalType": "uint256",
          "name": "",
          "type": "uint256"
        }
      ],
      "stateMutability": "view",
      "type": "function"
    },
    {
      "inputs": [
        {
          "internalType": "address",
          "name": "investor",
          "type": "address"
        },
        {
          "internalType": "string",
          "name": "_symbol",
          "type": "string"
        },
        {
          "internalType": "uint256",
          "name": "_value",
          "type": "uint256"
        }
      ],
      "name": "allocateTokens",
      "outputs": [],
      "stateMutability": "nonpayable",
      "type": "function"
    },
    {
      "inputs": [
        {
          "internalType": "address",
          "name": "_tokenHolder",
          "type": "address"
        },
        {
          "internalType": "string",
          "name": "_symbol",
          "type": "string"
        },
        {
          "internalType": "uint256",
          "name": "_value",
          "type": "uint256"
        }
      ],
      "name": "BuybackTokens",
      "outputs": [],
      "stateMutability": "nonpayable",
      "type": "function"
    }
  ],
  "bytecode": "0x608060405234801562000010575f80fd5b50604051620048e1380380620048e1833981810160405281019062000036919062000247565b8080805f73ffffffffffffffffffffffffffffffffffffffff168173ffffffffffffffffffffffffffffffffffffffff1603620000ac575f6040517f1e4fbdf7000000000000000000000000000000000000000000000000000000008152600401620000a3919062000288565b60405180910390fd5b620000bd816200012160201b60201c565b5050600160065f6101000a81548160ff0219169083151502179055505080600e5f6101000a81548173ffffffffffffffffffffffffffffffffffffffff021916908373ffffffffffffffffffffffffffffffffffffffff16021790555050620002a3565b5f805f9054906101000a900473ffffffffffffffffffffffffffffffffffffffff169050815f806101000a81548173ffffffffffffffffffffffffffffffffffffffff021916908373ffffffffffffffffffffffffffffffffffffffff1602179055508173ffffffffffffffffffffffffffffffffffffffff168173ffffffffffffffffffffffffffffffffffffffff167f8be0079c531659141344cd1fd0a4f28419497f9722a3daafe3b4186f6b6457e060405160405180910390a35050565b5f80fd5b5f73ffffffffffffffffffffffffffffffffffffffff82169050919050565b5f6200021182620001e6565b9050919050565b620002238162000205565b81146200022e575f80fd5b50565b5f81519050620002418162000218565b92915050565b5f602082840312156200025f576200025e620001e2565b5b5f6200026e8482850162000231565b91505092915050565b620002828162000205565b82525050565b5f6020820190506200029d5f83018462000277565b92915050565b61463080620002b15f395ff3fe608060405234801561000f575f80fd5b5060043610610230575f3560e01c806398b4610e1161012e578063c415db13116100b6578063eba1ed3b1161007a578063eba1ed3b146106fe578063f2fde38b1461072e578063fb2ad1c11461074a578063fc6f94681461077a578063fff3a01b1461079857610230565b8063c415db131461061e578063cacbdd781461064e578063cec9bfd914610682578063dcab6e53146106b2578063e0956ad0146106ce57610230565b8063af3eed72116100fd578063af3eed7214610540578063b10d6b4114610570578063b9b092c8146105a2578063c14a890d146105d2578063c35018481461060257610230565b806398b4610e146104a45780639fa5f50b146104d4578063adb2f71f146104f2578063aef736321461050e57610230565b806339ba645b116101bc578063715018a611610180578063715018a6146104265780637f1c83a714610430578063868571ef1461044c5780638da5cb5b1461046857806395d89b411461048657610230565b806339ba645b1461035e578063486862e91461037a5780634a5f66c1146103aa5780635586a42e146103da57806365c84ee8146103f657610230565b80631082dffe116102035780631082dffe146102bc5780631b33779a146102ec578063202e49361461030857806329aad762146103245780632f1cae851461034057610230565b8063010648ca1461023457806301ae70dd1461025057806304c2320b1461026c57806305f8ce27146102a0575b5f80fd5b61024e60048036038101906102499190612dca565b6107c8565b005b61026a60048036038101906102659190613000565b610992565b005b6102866004803603810190610281919061306c565b6109ec565b60405161029795949392919061314b565b60405180910390f35b6102ba60048036038101906102b59190613000565b610adb565b005b6102d660048036038101906102d191906131a3565b610bea565b6040516102e391906131e8565b60405180910390f35b61030660048036038101906103019190613201565b610c07565b005b610322600480360381019061031d919061325b565b610d4b565b005b61033e60048036038101906103399190613000565b610ee4565b005b6103486111ab565b60405161035591906131e8565b60405180910390f35b610378600480360381019061037391906131a3565b6111c0565b005b610394600480360381019061038f91906131a3565b6112cc565b6040516103a191906131e8565b60405180910390f35b6103c460048036038101906103bf919061306c565b61131e565b6040516103d191906132d1565b60405180910390f35b6103f460048036038101906103ef91906132f1565b6114b4565b005b610410600480360381019061040b91906131a3565b6117e8565b60405161041d91906131e8565b60405180910390f35b61042e61183a565b005b61044a600480360381019061044591906131a3565b61184d565b005b61046660048036038101906104619190613000565b6118ad565b005b610470611924565b60405161047d91906133a0565b60405180910390f35b61048e61194b565b60405161049b91906132d1565b60405180910390f35b6104be60048036038101906104b99190613201565b6119d7565b6040516104cb91906131e8565b60405180910390f35b6104dc611a4b565b6040516104e99190613470565b60405180910390f35b61050c600480360381019061050791906131a3565b611aa1565b005b61052860048036038101906105239190613000565b611b00565b604051610537939291906134d9565b60405180910390f35b61055a60048036038101906105559190613201565b611ca9565b60405161056791906132d1565b60405180910390f35b61058a6004803603810190610585919061350e565b611e40565b60405161059993929190613539565b60405180910390f35b6105bc60048036038101906105b79190613201565b611f18565b6040516105c99190613575565b60405180910390f35b6105ec60048036038101906105e791906131a3565b611f7b565b6040516105f991906131e8565b60405180910390f35b61061c6004803603810190610617919061350e565b611fcd565b005b6106386004803603810190610633919061306c565b6121aa565b6040516106459190613575565b60405180910390f35b6106686004803603810190610663919061306c565b6121d1565b60405161067995949392919061314b565b60405180910390f35b61069c600480360381019061069791906131a3565b6122cc565b6040516106a991906131e8565b60405180910390f35b6106cc60048036038101906106c79190613000565b6122e9565b005b6106e860048036038101906106e3919061306c565b612429565b6040516106f591906131e8565b60405180910390f35b610718600480360381019061071391906131a3565b61249c565b60405161072591906131e8565b60405180910390f35b610748600480360381019061074391906131a3565b6124b9565b005b610764600480360381019061075f91906131a3565b61253d565b60405161077191906132d1565b60405180910390f35b6107826125d8565b60405161078f91906133a0565b60405180910390f35b6107b260048036038101906107ad9190613000565b6125fd565b6040516107bf91906131e8565b60405180910390f35b6107d0612615565b5f801b8403610814576040517f08c379a000000000000000000000000000000000000000000000000000000000815260040161080b906135d8565b60405180910390fd5b5f8383905011610859576040517f08c379a000000000000000000000000000000000000000000000000000000000815260040161085090613640565b60405180910390fd5b5f60095f8681526020019081526020015f2060010154036108b657600b84908060018154018082558091505060019003905f5260205f20015f9091909190915055600b80549050600a5f8681526020019081526020015f20819055505b604051806060016040528082815260200142815260200184848080601f0160208091040260200160405190810160405280939291908181526020018383808284375f81840152601f19601f8201169050808301925050505050505081525060095f8681526020019081526020015f205f820151815f015560208201518160010155604082015181600201908161094c9190613858565b50905050837fb4c22d60cd550a815744f04e3ff5278bf19684565ee00e2b084041b6024bd6f684848460405161098493929190613953565b60405180910390a250505050565b61099c338461269c565b6109db576040517f08c379a00000000000000000000000000000000000000000000000000000000081526004016109d2906139cd565b60405180910390fd5b6109e68383836125fd565b50505050565b600c818051602081018201805184825260208301602085012081835280955050505050505f91509050805f015f9054906101000a900473ffffffffffffffffffffffffffffffffffffffff1690806001018054610a489061368b565b80601f0160208091040260200160405190810160405280929190818152602001828054610a749061368b565b8015610abf5780601f10610a9657610100808354040283529160200191610abf565b820191905f5260205f20905b815481529060010190602001808311610aa257829003601f168201915b5050505050908060020154908060030154908060040154905085565b610ae3612615565b610aed338461269c565b610b2c576040517f08c379a0000000000000000000000000000000000000000000000000000000008152600401610b23906139cd565b60405180910390fd5b610b346111ab565b610b73576040517f08c379a0000000000000000000000000000000000000000000000000000000008152600401610b6a90613a35565b60405180910390fd5b610b7e8383836127c7565b8273ffffffffffffffffffffffffffffffffffffffff163373ffffffffffffffffffffffffffffffffffffffff167f291499937407f152cc3db179be5cf983ffc161452a47a908b7f4f059ded2b0758484604051610bdd929190613a53565b60405180910390a3505050565b6001602052805f5260405f205f915054906101000a900460ff1681565b610c0f612615565b600c815114610c53576040517f08c379a0000000000000000000000000000000000000000000000000000000008152600401610c4a90613acb565b60405180910390fd5b6001805f8473ffffffffffffffffffffffffffffffffffffffff1673ffffffffffffffffffffffffffffffffffffffff1681526020019081526020015f205f6101000a81548160ff021916908315150217905550600160025f8473ffffffffffffffffffffffffffffffffffffffff1673ffffffffffffffffffffffffffffffffffffffff1681526020019081526020015f205f6101000a81548160ff0219169083151502179055508060035f8473ffffffffffffffffffffffffffffffffffffffff1673ffffffffffffffffffffffffffffffffffffffff1681526020019081526020015f209081610d469190613858565b505050565b5f60055f3373ffffffffffffffffffffffffffffffffffffffff1673ffffffffffffffffffffffffffffffffffffffff1681526020019081526020015f2083604051610d979190613b23565b90815260200160405180910390206001018054610db39061368b565b905014610df5576040517f08c379a0000000000000000000000000000000000000000000000000000000008152600401610dec90613b83565b60405180910390fd5b60405180604001604052808381526020018281525060055f3373ffffffffffffffffffffffffffffffffffffffff1673ffffffffffffffffffffffffffffffffffffffff1681526020019081526020015f2083604051610e559190613b23565b90815260200160405180910390205f820151815f019081610e769190613858565b506020820151816001019081610e8c9190613858565b509050503373ffffffffffffffffffffffffffffffffffffffff167f2f82310531f67ec4eae39b4f0d4e2ea9a5e6da4bb8f084adb414ec441b761c5d8383604051610ed8929190613ba1565b60405180910390a25050565b610eec612615565b81600d9081610efb9190613858565b50610f046111ab565b610f43576040517f08c379a0000000000000000000000000000000000000000000000000000000008152600401610f3a90613c20565b60405180910390fd5b5f600c600d604051610f559190613cbe565b908152602001604051809103902090505f816002015411610fab576040517f08c379a0000000000000000000000000000000000000000000000000000000008152600401610fa290613d1e565b60405180910390fd5b5f8211610fed576040517f08c379a0000000000000000000000000000000000000000000000000000000008152600401610fe490613d86565b60405180910390fd5b6064601482600201546110009190613dd1565b61100a9190613e3f565b82111561104c576040517f08c379a000000000000000000000000000000000000000000000000000000000815260040161104390613edf565b60405180910390fd5b8181600301541015611093576040517f08c379a000000000000000000000000000000000000000000000000000000000815260040161108a90613f47565b60405180910390fd5b81816003015f8282546110a69190613f65565b9250508190555061114084600d80546110be9061368b565b80601f01602080910402602001604051908101604052809291908181526020018280546110ea9061368b565b80156111355780601f1061110c57610100808354040283529160200191611135565b820191905f5260205f20905b81548152906001019060200180831161111857829003601f168201915b505050505084610992565b600d60405161114f9190613cbe565b60405180910390208473ffffffffffffffffffffffffffffffffffffffff167f32afb35792d62d76df78e3cffa000365e7c408b28d7ba5931cbd465d925b4a128460405161119d9190613575565b60405180910390a350505050565b5f60065f9054906101000a900460ff16905090565b6111c8612615565b5f60015f8373ffffffffffffffffffffffffffffffffffffffff1673ffffffffffffffffffffffffffffffffffffffff1681526020019081526020015f205f6101000a81548160ff0219169083151502179055505f60025f8373ffffffffffffffffffffffffffffffffffffffff1673ffffffffffffffffffffffffffffffffffffffff1681526020019081526020015f205f6101000a81548160ff02191690831515021790555060405180602001604052805f81525060035f8373ffffffffffffffffffffffffffffffffffffffff1673ffffffffffffffffffffffffffffffffffffffff1681526020019081526020015f2090816112c89190613858565b5050565b5f60045f8373ffffffffffffffffffffffffffffffffffffffff1673ffffffffffffffffffffffffffffffffffffffff1681526020019081526020015f205f9054906101000a900460ff169050919050565b60605f60055f3373ffffffffffffffffffffffffffffffffffffffff1673ffffffffffffffffffffffffffffffffffffffff1681526020019081526020015f208360405161136c9190613b23565b908152602001604051809103902060010180546113889061368b565b9050116113ca576040517f08c379a00000000000000000000000000000000000000000000000000000000081526004016113c190613fe2565b60405180910390fd5b60055f3373ffffffffffffffffffffffffffffffffffffffff1673ffffffffffffffffffffffffffffffffffffffff1681526020019081526020015f20826040516114159190613b23565b908152602001604051809103902060010180546114319061368b565b80601f016020809104026020016040519081016040528092919081815260200182805461145d9061368b565b80156114a85780601f1061147f576101008083540402835291602001916114a8565b820191905f5260205f20905b81548152906001019060200180831161148b57829003601f168201915b50505050509050919050565b6114bc612615565b82600d90816114cb9190613858565b506114d5856117e8565b611514576040517f08c379a000000000000000000000000000000000000000000000000000000000815260040161150b9061404a565b60405180910390fd5b61151d856112cc565b61155c576040517f08c379a0000000000000000000000000000000000000000000000000000000008152600401611553906140b2565b60405180910390fd5b5f600c600d60405161156e9190613cbe565b908152602001604051809103902060020154146115c0576040517f08c379a00000000000000000000000000000000000000000000000000000000081526004016115b790614140565b60405180910390fd5b84600c600d6040516115d29190613cbe565b90815260200160405180910390205f015f6101000a81548173ffffffffffffffffffffffffffffffffffffffff021916908373ffffffffffffffffffffffffffffffffffffffff16021790555083600c600d6040516116319190613cbe565b9081526020016040518091039020600101908161164e9190613858565b5081600c600d6040516116619190613cbe565b90815260200160405180910390206002018190555081600c600d6040516116889190613cbe565b90815260200160405180910390206003018190555080600c600d6040516116af9190613cbe565b908152602001604051809103902060040181905550611778600e5f9054906101000a900473ffffffffffffffffffffffffffffffffffffffff16600d80546116f69061368b565b80601f01602080910402602001604051908101604052809291908181526020018280546117229061368b565b801561176d5780601f106117445761010080835404028352916020019161176d565b820191905f5260205f20905b81548152906001019060200180831161175057829003601f168201915b505050505084610adb565b600d6040516117879190613cbe565b60405180910390208573ffffffffffffffffffffffffffffffffffffffff167f67cc2637dc8147ee999178ad9002b9fcccdde83ae7a8664c59f49ed2cceb2e628685856040516117d99392919061415e565b60405180910390a35050505050565b5f60015f8373ffffffffffffffffffffffffffffffffffffffff1673ffffffffffffffffffffffffffffffffffffffff1681526020019081526020015f205f9054906101000a900460ff169050919050565b611842612615565b61184b5f6128dd565b565b611855612615565b600160045f8373ffffffffffffffffffffffffffffffffffffffff1673ffffffffffffffffffffffffffffffffffffffff1681526020019081526020015f205f6101000a81548160ff02191690831515021790555050565b6118b883838361299e565b8273ffffffffffffffffffffffffffffffffffffffff163373ffffffffffffffffffffffffffffffffffffffff167fe442438f977cf13ed122d2e3462b1afe5a74fc3ad80af33b4962d673a5bbd3718484604051611917929190613a53565b60405180910390a3505050565b5f805f9054906101000a900473ffffffffffffffffffffffffffffffffffffffff16905090565b600d80546119589061368b565b80601f01602080910402602001604051908101604052809291908181526020018280546119849061368b565b80156119cf5780601f106119a6576101008083540402835291602001916119cf565b820191905f5260205f20905b8154815290600101906020018083116119b257829003601f168201915b505050505081565b5f8060055f8573ffffffffffffffffffffffffffffffffffffffff1673ffffffffffffffffffffffffffffffffffffffff1681526020019081526020015f2083604051611a249190613b23565b90815260200160405180910390206001018054611a409061368b565b905011905092915050565b6060600b805480602002602001604051908101604052809291908181526020018280548015611a9757602002820191905f5260205f20905b815481526020019060010190808311611a83575b5050505050905090565b611aa9612615565b5f60045f8373ffffffffffffffffffffffffffffffffffffffff1673ffffffffffffffffffffffffffffffffffffffff1681526020019081526020015f205f6101000a81548160ff02191690831515021790555050565b5f805f611b0d338761269c565b611b4c576040517f08c379a0000000000000000000000000000000000000000000000000000000008152600401611b43906139cd565b60405180910390fd5b8360075f3373ffffffffffffffffffffffffffffffffffffffff1673ffffffffffffffffffffffffffffffffffffffff1681526020019081526020015f2086604051611b989190613b23565b9081526020016040518091039020541015611bc4575f60525f801b8160f81b9150925092509250611ca0565b5f73ffffffffffffffffffffffffffffffffffffffff168673ffffffffffffffffffffffffffffffffffffffff1603611c0e575f60575f801b8160f81b9150925092509250611ca0565b611c7160075f8873ffffffffffffffffffffffffffffffffffffffff1673ffffffffffffffffffffffffffffffffffffffff1681526020019081526020015f2086604051611c5c9190613b23565b90815260200160405180910390205485612b19565b611c8c575f60505f801b8160f81b9150925092509250611ca0565b600160515f801b8160f81b91509250925092505b93509350939050565b60605f60055f8573ffffffffffffffffffffffffffffffffffffffff1673ffffffffffffffffffffffffffffffffffffffff1681526020019081526020015f2083604051611cf79190613b23565b90815260200160405180910390206001018054611d139061368b565b905011611d55576040517f08c379a0000000000000000000000000000000000000000000000000000000008152600401611d4c90613fe2565b60405180910390fd5b60055f8473ffffffffffffffffffffffffffffffffffffffff1673ffffffffffffffffffffffffffffffffffffffff1681526020019081526020015f2082604051611da09190613b23565b90815260200160405180910390206001018054611dbc9061368b565b80601f0160208091040260200160405190810160405280929190818152602001828054611de89061368b565b8015611e335780601f10611e0a57610100808354040283529160200191611e33565b820191905f5260205f20905b815481529060010190602001808311611e1657829003601f168201915b5050505050905092915050565b60605f8060095f8581526020019081526020015f2060020160095f8681526020019081526020015f205f015460095f8781526020019081526020015f2060010154828054611e8d9061368b565b80601f0160208091040260200160405190810160405280929190818152602001828054611eb99061368b565b8015611f045780601f10611edb57610100808354040283529160200191611f04565b820191905f5260205f20905b815481529060010190602001808311611ee757829003601f168201915b505050505092509250925092509193909250565b5f60075f8473ffffffffffffffffffffffffffffffffffffffff1673ffffffffffffffffffffffffffffffffffffffff1681526020019081526020015f2082604051611f649190613b23565b908152602001604051809103902054905092915050565b5f60025f8373ffffffffffffffffffffffffffffffffffffffff1673ffffffffffffffffffffffffffffffffffffffff1681526020019081526020015f205f9054906101000a900460ff169050919050565b611fd5612615565b5f60095f8381526020019081526020015f20600101540361202b576040517f08c379a0000000000000000000000000000000000000000000000000000000008152600401612022906141e4565b60405180910390fd5b5f6001600a5f8481526020019081526020015f205461204a9190613f65565b90506001600b8054905061205e9190613f65565b81146120f157600b6001600b805490506120789190613f65565b8154811061208957612088614202565b5b905f5260205f200154600b82815481106120a6576120a5614202565b5b905f5260205f2001819055506001816120bf919061422f565b600a5f600b84815481106120d6576120d5614202565b5b905f5260205f20015481526020019081526020015f20819055505b600b80548061210357612102614262565b5b600190038181905f5260205f20015f90559055817f3d9bba27d3e360d8c80645beed7e991454a8271bf6f269a24f7782be0f0d065460095f8581526020019081526020015f2060020160095f8681526020019081526020015f205f015460405161216e929190614310565b60405180910390a260095f8381526020019081526020015f205f8082015f9055600182015f9055600282015f6121a49190612ccd565b50505050565b5f6008826040516121bb9190613b23565b9081526020016040518091039020549050919050565b5f60605f805f80600c876040516121e89190613b23565b90815260200160405180910390209050805f015f9054906101000a900473ffffffffffffffffffffffffffffffffffffffff168160010182600201548360030154846004015483805461223a9061368b565b80601f01602080910402602001604051908101604052809291908181526020018280546122669061368b565b80156122b15780601f10612288576101008083540402835291602001916122b1565b820191905f5260205f20905b81548152906001019060200180831161229457829003601f168201915b50505050509350955095509550955095505091939590929450565b6004602052805f5260405f205f915054906101000a900460ff1681565b6122f1612615565b5f600c836040516123029190613b23565b908152602001604051809103902090505f816002015411612358576040517f08c379a000000000000000000000000000000000000000000000000000000000815260040161234f90613d1e565b60405180910390fd5b5f821161239a576040517f08c379a000000000000000000000000000000000000000000000000000000000815260040161239190614388565b60405180910390fd5b81816002015f8282546123ad9190613f65565b925050819055506123bf8484846118ad565b826040516123cd9190613b23565b60405180910390208473ffffffffffffffffffffffffffffffffffffffff167f42553426c7163a6f0d19f7bd35b9c58878be4bb3585577b73b46bbf4a90b93f68460405161241b9190613575565b60405180910390a350505050565b5f8060055f3373ffffffffffffffffffffffffffffffffffffffff1673ffffffffffffffffffffffffffffffffffffffff1681526020019081526020015f20836040516124769190613b23565b908152602001604051809103902060010180546124929061368b565b9050119050919050565b6002602052805f5260405f205f915054906101000a900460ff1681565b6124c1612615565b5f73ffffffffffffffffffffffffffffffffffffffff168173ffffffffffffffffffffffffffffffffffffffff1603612531575f6040517f1e4fbdf700000000000000000000000000000000000000000000000000000000815260040161252891906133a0565b60405180910390fd5b61253a816128dd565b50565b6003602052805f5260405f205f9150905080546125599061368b565b80601f01602080910402602001604051908101604052809291908181526020018280546125859061368b565b80156125d05780601f106125a7576101008083540402835291602001916125d0565b820191905f5260205f20905b8154815290600101906020018083116125b357829003601f168201915b505050505081565b600e5f9054906101000a900473ffffffffffffffffffffffffffffffffffffffff1681565b5f61260a33858585612b46565b600190509392505050565b61261d612cc6565b73ffffffffffffffffffffffffffffffffffffffff1661263b611924565b73ffffffffffffffffffffffffffffffffffffffff161461269a5761265e612cc6565b6040517f118cdaa700000000000000000000000000000000000000000000000000000000815260040161269191906133a0565b60405180910390fd5b565b5f6126a6836117e8565b6126e5576040517f08c379a00000000000000000000000000000000000000000000000000000000081526004016126dc906143f0565b60405180910390fd5b6126ee826117e8565b61272d576040517f08c379a00000000000000000000000000000000000000000000000000000000081526004016127249061447e565b60405180910390fd5b61273683611f7b565b612775576040517f08c379a000000000000000000000000000000000000000000000000000000000815260040161276c906144e6565b60405180910390fd5b61277e82611f7b565b6127bd576040517f08c379a00000000000000000000000000000000000000000000000000000000081526004016127b490614574565b60405180910390fd5b6001905092915050565b5f73ffffffffffffffffffffffffffffffffffffffff168373ffffffffffffffffffffffffffffffffffffffff1603612835576040517f08c379a000000000000000000000000000000000000000000000000000000000815260040161282c906145dc565b60405180910390fd5b806008836040516128469190613b23565b90815260200160405180910390205f828254612862919061422f565b925050819055508060075f8573ffffffffffffffffffffffffffffffffffffffff1673ffffffffffffffffffffffffffffffffffffffff1681526020019081526020015f20836040516128b59190613b23565b90815260200160405180910390205f8282546128d1919061422f565b92505081905550505050565b5f805f9054906101000a900473ffffffffffffffffffffffffffffffffffffffff169050815f806101000a81548173ffffffffffffffffffffffffffffffffffffffff021916908373ffffffffffffffffffffffffffffffffffffffff1602179055508173ffffffffffffffffffffffffffffffffffffffff168173ffffffffffffffffffffffffffffffffffffffff167f8be0079c531659141344cd1fd0a4f28419497f9722a3daafe3b4186f6b6457e060405160405180910390a35050565b5f73ffffffffffffffffffffffffffffffffffffffff168373ffffffffffffffffffffffffffffffffffffffff1603612a0c576040517f08c379a0000000000000000000000000000000000000000000000000000000008152600401612a03906145dc565b60405180910390fd5b60075f8473ffffffffffffffffffffffffffffffffffffffff1673ffffffffffffffffffffffffffffffffffffffff1681526020019081526020015f2082604051612a579190613b23565b908152602001604051809103902054811115612a71575f80fd5b80600883604051612a829190613b23565b90815260200160405180910390205f828254612a9e9190613f65565b925050819055508060075f8573ffffffffffffffffffffffffffffffffffffffff1673ffffffffffffffffffffffffffffffffffffffff1681526020019081526020015f2083604051612af19190613b23565b90815260200160405180910390205f828254612b0d9190613f65565b92505081905550505050565b5f808284612b27919061422f565b905083811015612b3a575f915050612b40565b60019150505b92915050565b60075f8573ffffffffffffffffffffffffffffffffffffffff1673ffffffffffffffffffffffffffffffffffffffff1681526020019081526020015f2082604051612b919190613b23565b908152602001604051809103902054811115612bab575f80fd5b5f73ffffffffffffffffffffffffffffffffffffffff168373ffffffffffffffffffffffffffffffffffffffff1603612be2575f80fd5b8060075f8673ffffffffffffffffffffffffffffffffffffffff1673ffffffffffffffffffffffffffffffffffffffff1681526020019081526020015f2083604051612c2e9190613b23565b90815260200160405180910390205f828254612c4a9190613f65565b925050819055508060075f8573ffffffffffffffffffffffffffffffffffffffff1673ffffffffffffffffffffffffffffffffffffffff1681526020019081526020015f2083604051612c9d9190613b23565b90815260200160405180910390205f828254612cb9919061422f565b9250508190555050505050565b5f33905090565b508054612cd99061368b565b5f825580601f10612cea5750612d07565b601f0160209004905f5260205f2090810190612d069190612d0a565b5b50565b5b80821115612d21575f815f905550600101612d0b565b5090565b5f604051905090565b5f80fd5b5f80fd5b5f819050919050565b612d4881612d36565b8114612d52575f80fd5b50565b5f81359050612d6381612d3f565b92915050565b5f80fd5b5f80fd5b5f80fd5b5f8083601f840112612d8a57612d89612d69565b5b8235905067ffffffffffffffff811115612da757612da6612d6d565b5b602083019150836001820283011115612dc357612dc2612d71565b5b9250929050565b5f805f8060608587031215612de257612de1612d2e565b5b5f612def87828801612d55565b945050602085013567ffffffffffffffff811115612e1057612e0f612d32565b5b612e1c87828801612d75565b93509350506040612e2f87828801612d55565b91505092959194509250565b5f73ffffffffffffffffffffffffffffffffffffffff82169050919050565b5f612e6482612e3b565b9050919050565b612e7481612e5a565b8114612e7e575f80fd5b50565b5f81359050612e8f81612e6b565b92915050565b5f80fd5b5f601f19601f8301169050919050565b7f4e487b71000000000000000000000000000000000000000000000000000000005f52604160045260245ffd5b612edf82612e99565b810181811067ffffffffffffffff82111715612efe57612efd612ea9565b5b80604052505050565b5f612f10612d25565b9050612f1c8282612ed6565b919050565b5f67ffffffffffffffff821115612f3b57612f3a612ea9565b5b612f4482612e99565b9050602081019050919050565b828183375f83830152505050565b5f612f71612f6c84612f21565b612f07565b905082815260208101848484011115612f8d57612f8c612e95565b5b612f98848285612f51565b509392505050565b5f82601f830112612fb457612fb3612d69565b5b8135612fc4848260208601612f5f565b91505092915050565b5f819050919050565b612fdf81612fcd565b8114612fe9575f80fd5b50565b5f81359050612ffa81612fd6565b92915050565b5f805f6060848603121561301757613016612d2e565b5b5f61302486828701612e81565b935050602084013567ffffffffffffffff81111561304557613044612d32565b5b61305186828701612fa0565b925050604061306286828701612fec565b9150509250925092565b5f6020828403121561308157613080612d2e565b5b5f82013567ffffffffffffffff81111561309e5761309d612d32565b5b6130aa84828501612fa0565b91505092915050565b6130bc81612e5a565b82525050565b5f81519050919050565b5f82825260208201905092915050565b5f5b838110156130f95780820151818401526020810190506130de565b5f8484015250505050565b5f61310e826130c2565b61311881856130cc565b93506131288185602086016130dc565b61313181612e99565b840191505092915050565b61314581612fcd565b82525050565b5f60a08201905061315e5f8301886130b3565b81810360208301526131708187613104565b905061317f604083018661313c565b61318c606083018561313c565b613199608083018461313c565b9695505050505050565b5f602082840312156131b8576131b7612d2e565b5b5f6131c584828501612e81565b91505092915050565b5f8115159050919050565b6131e2816131ce565b82525050565b5f6020820190506131fb5f8301846131d9565b92915050565b5f806040838503121561321757613216612d2e565b5b5f61322485828601612e81565b925050602083013567ffffffffffffffff81111561324557613244612d32565b5b61325185828601612fa0565b9150509250929050565b5f806040838503121561327157613270612d2e565b5b5f83013567ffffffffffffffff81111561328e5761328d612d32565b5b61329a85828601612fa0565b925050602083013567ffffffffffffffff8111156132bb576132ba612d32565b5b6132c785828601612fa0565b9150509250929050565b5f6020820190508181035f8301526132e98184613104565b905092915050565b5f805f805f60a0868803121561330a57613309612d2e565b5b5f61331788828901612e81565b955050602086013567ffffffffffffffff81111561333857613337612d32565b5b61334488828901612fa0565b945050604086013567ffffffffffffffff81111561336557613364612d32565b5b61337188828901612fa0565b935050606061338288828901612fec565b925050608061339388828901612fec565b9150509295509295909350565b5f6020820190506133b35f8301846130b3565b92915050565b5f81519050919050565b5f82825260208201905092915050565b5f819050602082019050919050565b6133eb81612d36565b82525050565b5f6133fc83836133e2565b60208301905092915050565b5f602082019050919050565b5f61341e826133b9565b61342881856133c3565b9350613433836133d3565b805f5b8381101561346357815161344a88826133f1565b975061345583613408565b925050600181019050613436565b5085935050505092915050565b5f6020820190508181035f8301526134888184613414565b905092915050565b5f7fff0000000000000000000000000000000000000000000000000000000000000082169050919050565b6134c481613490565b82525050565b6134d381612d36565b82525050565b5f6060820190506134ec5f8301866131d9565b6134f960208301856134bb565b61350660408301846134ca565b949350505050565b5f6020828403121561352357613522612d2e565b5b5f61353084828501612d55565b91505092915050565b5f6060820190508181035f8301526135518186613104565b905061356060208301856134ca565b61356d604083018461313c565b949350505050565b5f6020820190506135885f83018461313c565b92915050565b7f5a65726f2076616c7565206973206e6f7420616c6c6f776564000000000000005f82015250565b5f6135c26019836130cc565b91506135cd8261358e565b602082019050919050565b5f6020820190508181035f8301526135ef816135b6565b9050919050565b7f53686f756c64206e6f74206265206120656d70747920757269000000000000005f82015250565b5f61362a6019836130cc565b9150613635826135f6565b602082019050919050565b5f6020820190508181035f8301526136578161361e565b9050919050565b7f4e487b71000000000000000000000000000000000000000000000000000000005f52602260045260245ffd5b5f60028204905060018216806136a257607f821691505b6020821081036136b5576136b461365e565b5b50919050565b5f819050815f5260205f209050919050565b5f6020601f8301049050919050565b5f82821b905092915050565b5f600883026137177fffffffffffffffffffffffffffffffffffffffffffffffffffffffffffffffff826136dc565b61372186836136dc565b95508019841693508086168417925050509392505050565b5f819050919050565b5f61375c61375761375284612fcd565b613739565b612fcd565b9050919050565b5f819050919050565b61377583613742565b61378961378182613763565b8484546136e8565b825550505050565b5f90565b61379d613791565b6137a881848461376c565b505050565b5b818110156137cb576137c05f82613795565b6001810190506137ae565b5050565b601f821115613810576137e1816136bb565b6137ea846136cd565b810160208510156137f9578190505b61380d613805856136cd565b8301826137ad565b50505b505050565b5f82821c905092915050565b5f6138305f1984600802613815565b1980831691505092915050565b5f6138488383613821565b9150826002028217905092915050565b613861826130c2565b67ffffffffffffffff81111561387a57613879612ea9565b5b613884825461368b565b61388f8282856137cf565b5f60209050601f8311600181146138c0575f84156138ae578287015190505b6138b8858261383d565b86555061391f565b601f1984166138ce866136bb565b5f5b828110156138f5578489015182556001820191506020850194506020810190506138d0565b86831015613912578489015161390e601f891682613821565b8355505b6001600288020188555050505b505050505050565b5f61393283856130cc565b935061393f838584612f51565b61394883612e99565b840190509392505050565b5f6040820190508181035f83015261396c818587613927565b905061397b60208301846134ca565b949350505050565b7f496e76616c696420646174612070726f766964656400000000000000000000005f82015250565b5f6139b76015836130cc565b91506139c282613983565b602082019050919050565b5f6020820190508181035f8301526139e4816139ab565b9050919050565b7f49737375616e636520697320636c6f73656400000000000000000000000000005f82015250565b5f613a1f6012836130cc565b9150613a2a826139eb565b602082019050919050565b5f6020820190508181035f830152613a4c81613a13565b9050919050565b5f6040820190508181035f830152613a6b8185613104565b9050613a7a602083018461313c565b9392505050565b7f496e76616c696420416164686172206e756d62657200000000000000000000005f82015250565b5f613ab56015836130cc565b9150613ac082613a81565b602082019050919050565b5f6020820190508181035f830152613ae281613aa9565b9050919050565b5f81905092915050565b5f613afd826130c2565b613b078185613ae9565b9350613b178185602086016130dc565b80840191505092915050565b5f613b2e8284613af3565b915081905092915050565b7f46696c6520616c726561647920657869737473000000000000000000000000005f82015250565b5f613b6d6013836130cc565b9150613b7882613b39565b602082019050919050565b5f6020820190508181035f830152613b9a81613b61565b9050919050565b5f6040820190508181035f830152613bb98185613104565b90508181036020830152613bcd8184613104565b90509392505050565b7f546f6b656e7320617265206e6f74206973737561626c650000000000000000005f82015250565b5f613c0a6017836130cc565b9150613c1582613bd6565b602082019050919050565b5f6020820190508181035f830152613c3781613bfe565b9050919050565b5f8154613c4a8161368b565b613c548186613ae9565b9450600182165f8114613c6e5760018114613c8357613cb5565b60ff1983168652811515820286019350613cb5565b613c8c856136bb565b5f5b83811015613cad57815481890152600182019150602081019050613c8e565b838801955050505b50505092915050565b5f613cc98284613c3e565b915081905092915050565b7f546f6b656e20646f6573206e6f742065786973740000000000000000000000005f82015250565b5f613d086014836130cc565b9150613d1382613cd4565b602082019050919050565b5f6020820190508181035f830152613d3581613cfc565b9050919050565b7f416d6f756e74206d7573742062652067726561746572207468616e20300000005f82015250565b5f613d70601d836130cc565b9150613d7b82613d3c565b602082019050919050565b5f6020820190508181035f830152613d9d81613d64565b9050919050565b7f4e487b71000000000000000000000000000000000000000000000000000000005f52601160045260245ffd5b5f613ddb82612fcd565b9150613de683612fcd565b9250828202613df481612fcd565b91508282048414831517613e0b57613e0a613da4565b5b5092915050565b7f4e487b71000000000000000000000000000000000000000000000000000000005f52601260045260245ffd5b5f613e4982612fcd565b9150613e5483612fcd565b925082613e6457613e63613e12565b5b828204905092915050565b7f43616e6e6f7420616c6c6f63617465206d6f7265207468616e20323025206f665f8201527f2074686520746f74616c20737570706c79000000000000000000000000000000602082015250565b5f613ec96031836130cc565b9150613ed482613e6f565b604082019050919050565b5f6020820190508181035f830152613ef681613ebd565b9050919050565b7f4e6f7420656e6f75676820746f6b656e7320617661696c61626c6500000000005f82015250565b5f613f31601b836130cc565b9150613f3c82613efd565b602082019050919050565b5f6020820190508181035f830152613f5e81613f25565b9050919050565b5f613f6f82612fcd565b9150613f7a83612fcd565b9250828203905081811115613f9257613f91613da4565b5b92915050565b7f46696c65206e6f7420666f756e640000000000000000000000000000000000005f82015250565b5f613fcc600e836130cc565b9150613fd782613f98565b602082019050919050565b5f6020820190508181035f830152613ff981613fc0565b9050919050565b7f2061646472657373206e6f74204b5943207665726966696564000000000000005f82015250565b5f6140346019836130cc565b915061403f82614000565b602082019050919050565b5f6020820190508181035f83015261406181614028565b9050919050565b7f2061646472657373206e6f7420646f63756d656e7420766572696669656400005f82015250565b5f61409c601e836130cc565b91506140a782614068565b602082019050919050565b5f6020820190508181035f8301526140c981614090565b9050919050565b7f546f6b656e207769746820746869732073796d626f6c20616c726561647920655f8201527f7869737473000000000000000000000000000000000000000000000000000000602082015250565b5f61412a6025836130cc565b9150614135826140d0565b604082019050919050565b5f6020820190508181035f8301526141578161411e565b9050919050565b5f6060820190508181035f8301526141768186613104565b9050614185602083018561313c565b614192604083018461313c565b949350505050565b7f446f63756d656e742073686f756c6420626520657869737465640000000000005f82015250565b5f6141ce601a836130cc565b91506141d98261419a565b602082019050919050565b5f6020820190508181035f8301526141fb816141c2565b9050919050565b7f4e487b71000000000000000000000000000000000000000000000000000000005f52603260045260245ffd5b5f61423982612fcd565b915061424483612fcd565b925082820190508082111561425c5761425b613da4565b5b92915050565b7f4e487b71000000000000000000000000000000000000000000000000000000005f52603160045260245ffd5b5f815461429b8161368b565b6142a581866130cc565b9450600182165f81146142bf57600181146142d557614307565b60ff198316865281151560200286019350614307565b6142de856136bb565b5f5b838110156142ff578154818901526001820191506020810190506142e0565b808801955050505b50505092915050565b5f6040820190508181035f830152614328818561428f565b905061433760208301846134ca565b9392505050565b7f416d6f756e74206d7573742062652067726561746572207468616e207a65726f5f82015250565b5f6143726020836130cc565b915061437d8261433e565b602082019050919050565b5f6020820190508181035f83015261439f81614366565b9050919050565b7f53656e6465722061646472657373206e6f74204b5943207665726966696564005f82015250565b5f6143da601f836130cc565b91506143e5826143a6565b602082019050919050565b5f6020820190508181035f830152614407816143ce565b9050919050565b7f526563697069656e742061646472657373206e6f74204b5943207665726966695f8201527f6564000000000000000000000000000000000000000000000000000000000000602082015250565b5f6144686022836130cc565b91506144738261440e565b604082019050919050565b5f6020820190508181035f8301526144958161445c565b9050919050565b7f53656e646572206973206e6f7420616e20496e6469616e207265736964656e745f82015250565b5f6144d06020836130cc565b91506144db8261449c565b602082019050919050565b5f6020820190508181035f8301526144fd816144c4565b9050919050565b7f526563697069656e74206973206e6f7420616e20496e6469616e2072657369645f8201527f656e740000000000000000000000000000000000000000000000000000000000602082015250565b5f61455e6023836130cc565b915061456982614504565b604082019050919050565b5f6020820190508181035f83015261458b81614552565b9050919050565b7f4163636f756e742063616e6e6f74206265207a65726f206164647265737300005f82015250565b5f6145c6601e836130cc565b91506145d182614592565b602082019050919050565b5f6020820190508181035f8301526145f3816145ba565b905091905056fea26469706673582212203e9ec3a3cd6a78a9095dc847ce28c9e0eb33e24a9e67307eb5cb5b3bd6b597b564736f6c63430008150033",
  "immutableReferences": {},
  "source": "\r\n\r\n// SPDX-License-Identifier: MIT\r\npragma solidity ^0.8.0;\r\n\r\n\r\n\r\nimport \"./ERC1400.sol\";\r\n\r\n\r\n/************************************** SecurityTokenOffering ***************************************/\r\n\r\n\r\ncontract STO is ERC1400{\r\n\r\n    struct TokenInfo {\r\n        address tokenOwner;\r\n        string name;\r\n        uint256 totalSupply;\r\n        uint256 availableSupply;\r\n        uint256 price; // Price per token in fiat\r\n    }\r\n\r\n    // Mapping from token symbol to TokenInfo\r\n    mapping(string => TokenInfo) public tokens;\r\n    \r\n    string public symbol;\r\n\r\n    // Address where all tokens will be minted initially\r\n    address  public adminAddress;\r\n    \r\n    \r\n    event TokenCreated(address indexed tokenOwner,string indexed symbol, string name, uint256 totalSupply, uint256 price);\r\n    event TokensAllocated(address indexed investor, string indexed symbol, uint256 _value);\r\n    event TokensBurned(address indexed _tokenHolder, string indexed symbol, uint256 _value);\r\n\r\n\r\n    constructor(address _adminAddress) ERC1400(_adminAddress){\r\n        adminAddress = _adminAddress;\r\n       \r\n    }\r\n\r\n    // Function to create a new token\r\n    function createToken(address _tokenOwner,string memory _name, string memory _symbol, uint256 _totalSupply, uint256 _price)  external onlyOwner {\r\n       \r\n        symbol = _symbol;\r\n         // Ensure KYC is completed\r\n        require(super.KYCVerified(_tokenOwner), \" address not KYC verified\");\r\n        // Ensure document is verified\r\n        require(super.DocumentVerified(_tokenOwner), \" address not document verified\");  \r\n\r\n        require(tokens[symbol].totalSupply == 0, \"Token with this symbol already exists\");\r\n         \r\n        tokens[symbol].tokenOwner = _tokenOwner;\r\n        tokens[symbol].name = _name;\r\n        tokens[symbol].totalSupply = _totalSupply;\r\n        tokens[symbol].availableSupply = _totalSupply;\r\n        tokens[symbol].price = _price;\r\n\r\n        super.issue(adminAddress,symbol,_totalSupply);\r\n\r\n        emit TokenCreated(_tokenOwner,symbol, _name, _totalSupply, _price);\r\n    }\r\n\r\n    // Function to get token details by token symbol\r\n    function getTokenDetails(string memory _symbol) external view returns (address,string memory, uint256,uint256, uint256) {\r\n    \r\n        TokenInfo storage token = tokens[_symbol];\r\n        return (token.tokenOwner,token.name, token.totalSupply,token.availableSupply, token.price);\r\n    }\r\n\r\n    // Admin function to allocate tokens to investor upon receiving fiat currency\r\n    function allocateTokens(address investor,string memory _symbol, uint256 _value) public onlyOwner {\r\n         symbol = _symbol;\r\n        require(isIssuable(), \"Tokens are not issuable\");\r\n        TokenInfo storage token = tokens[symbol];\r\n        require(token.totalSupply > 0, \"Token does not exist\");\r\n        require(_value > 0, \"Amount must be greater than 0\");\r\n        require(_value <= token.totalSupply * 20 / 100, \"Cannot allocate more than 20% of the total supply\");\r\n\r\n        require(token.availableSupply >= _value, \"Not enough tokens available\");\r\n        token.availableSupply -= _value;\r\n        \r\n        super.transferWithData(investor,symbol,_value);\r\n\r\n        emit TokensAllocated(investor, symbol, _value);\r\n    }\r\n\r\n\r\n  //burns tokens from a users balance\r\n\r\n  function BuybackTokens(address _tokenHolder,string memory _symbol, uint256 _value) external onlyOwner {\r\n   \r\n        TokenInfo storage token = tokens[_symbol];\r\n      require(token.totalSupply > 0, \"Token does not exist\");\r\n      require(_value > 0, \"Amount must be greater than zero\");\r\n      token.totalSupply-= _value;\r\n\r\n      super.redeem(_tokenHolder,_symbol,_value);\r\n\r\n      emit TokensBurned(_tokenHolder, _symbol, _value);\r\n}\r\n\r\n}",
  "sourcePath": "D:\\SecurityTokenStandard\\grayy_backend\\ERC-1400\\contracts\\ERC1400\\STO.sol",
  "compiler": {
    "name": "solc",
    "version": "0.8.21+commit.d9974bed.Emscripten.clang"
  },
  "schemaVersion": "3.4.16",
  "updatedAt": "2024-07-11T13:37:31.717Z",
  "devdoc": {
    "errors": {
      "OwnableInvalidOwner(address)": [
        {
          "details": "The owner is not a valid owner account. (eg. `address(0)`)"
        }
      ],
      "OwnableUnauthorizedAccount(address)": [
        {
          "details": "The caller account is not authorized to perform an operation."
        }
      ]
    },
    "kind": "dev",
    "methods": {
      "balanceOf(address,string)": {
        "details": "Gets the balance of the specified address.",
        "params": {
          "owner": "The address to query the balance of."
        },
        "returns": {
          "_0": "An uint256 representing the amount owned by the passed address."
        }
      },
      "canTransfer(address,string,uint256)": {
        "params": {
          "_to": "address The address which you want to transfer to",
          "_value": "uint256 the amount of tokens to be transferred"
        },
        "returns": {
          "_0": "bool It signifies whether the transaction will be executed or not.",
          "_1": "byte Ethereum status code (ESC)",
          "_2": "bytes32 Application specific reason code "
        }
      },
      "getAllDocuments()": {
        "returns": {
          "_0": "bytes32 List of all documents names present in the contract."
        }
      },
      "getDocument(bytes32)": {
        "params": {
          "_name": "Name of the document"
        },
        "returns": {
          "_0": "string The URI associated with the document.",
          "_1": "bytes32 The hash (of the contents) of the document.",
          "_2": "uint256 the timestamp at which the document was last modified."
        }
      },
      "owner()": {
        "details": "Returns the address of the current owner."
      },
      "removeDocument(bytes32)": {
        "details": "Can only be executed by the owner of the contract.",
        "params": {
          "_name": "Name of the document. It should be unique always"
        }
      },
      "renounceOwnership()": {
        "details": "Leaves the contract without owner. It will not be possible to call `onlyOwner` functions. Can only be called by the current owner. NOTE: Renouncing ownership will leave the contract without an owner, thereby disabling any functionality that is only available to the owner."
      },
      "setDocument(bytes32,string,bytes32)": {
        "details": "Can only be executed by the owner of the contract.",
        "params": {
          "_documentHash": "hash (of the contents) of the document.",
          "_name": "Name of the document. It should be unique always",
          "_uri": "Off-chain uri of the document from where it is accessible to investors/advisors to read."
        }
      },
      "totalSupply(string)": {
        "details": "Total number of tokens in existence"
      },
      "transferOwnership(address)": {
        "details": "Transfers ownership of the contract to a new account (`newOwner`). Can only be called by the current owner."
      }
    },
    "version": 1
  },
  "userdoc": {
    "kind": "user",
    "methods": {
      "canTransfer(address,string,uint256)": {
        "notice": "Transfers of securities may fail for a number of reasons. So this function will used to understand the cause of failure by getting the byte value. Which will be the ESC that follows the EIP 1066. ESC can be mapped  with a reson string to understand the failure cause, table of Ethereum status code will always reside off-chain"
      },
      "getAllDocuments()": {
        "notice": "Used to retrieve a full list of documents attached to the smart contract."
      },
      "getDocument(bytes32)": {
        "notice": "Used to return the details of a document with a known name (`bytes32`)."
      },
      "removeDocument(bytes32)": {
        "notice": "Used to remove an existing document from the contract by giving the name of the document."
      },
      "setDocument(bytes32,string,bytes32)": {
        "notice": "Used to attach a new document to the contract, or update the URI or hash of an existing attached document"
      }
    },
    "version": 1
  }
}